12007030506 000400000000000000000772000000000000000007729900000000000I.N.S.S.J.P  ( PAMI )         000000002017400000000002017400000000000000000000000000000000000000000000000000000000000201740000000000000000000000000000000000000000000000000000000000000000   00000000001 000000000000000000000000000000                                                                           00000000000000000000000
12007030506 000300000000000000000260000000000000000002609900000000000CONSUMIDOR FINAL              000000000030000000000000000000000000000024793210000000000000520700000000000000000000000000000000000000000000000000000000000000000000000000000000000000000000   00000000001 000000000000000000000000000000                                                                           00000000000000000000000
12007030506 000300000000000000000261000000000000000002619900000000000CONSUMIDOR FINAL              000000000006000000000000000000000000000004959210000000000000104100000000000000000000000000000000000000000000000000000000000000000000000000000000000000000000   00000000001 000000000000000000000000000000                                                                           00000000000000000000000
12007030606 000300000000000000000262000000000000000002629900000000000CONSUMIDOR FINAL              000000000051000000000000000000000000000042149210000000000000885100000000000000000000000000000000000000000000000000000000000000000000000000000000000000000000   00000000001 000000000000000000000000000000                                                                           00000000000000000000000
12007030703 000300000000000000000485000000000000000004858030679970808A.S.T. GASTRONOMICOS          000000000003394000000000003394000000000000000000000000000000000000000000000000000000000000339400000000000000000000000000000000000000000000000000000000000000   00000000001 000000000000000000000000000000                                                                           00000000000000000000000
12007030703 000300000000000000000484000000000000000004848030679970808A.S.T. OSPIT                  000000000016189000000000016189000000000000000000000000000000000000000000000000000000000001618900000000000000000000000000000000000000000000000000000000000000   00000000001 000000000000000000000000000000                                                                           00000000000000000000000
12007030806 000300000000000000000263000000000000000002639900000000000CONSUMIDOR FINAL              000000000065000000000000000000000000000053719210000000000001128100000000000000000000000000000000000000000000000000000000000000000000000000000000000000000000   00000000001 000000000000000000000000000000                                                                           00000000000000000000000
12007030906 000300000000000000000265000000000000000002659900000000000CONSUMIDOR FINAL              000000000016000000000000000000000000000013223210000000000000277700000000000000000000000000000000000000000000000000000000000000000000000000000000000000000000   00000000001 000000000000000000000000000000                                                                           00000000000000000000000
12007030903 000300000000000000000487000000000000000004878030546741253OSDE                          000000000010444000000000010444000000000000000000000000000000000000000000000000000000000001044400000000000000000000000000000000000000000000000000000000000000   00000000001 000000000000000000000000000000                                                                           00000000000000000000000
12007030902 000300000000000000000486000000000000000004868030546741253OSDE                          000000000011818000000000000000000000000010695105000000000000112300000000000000000000000000000000000000000000000000000000000000000000000000000000000000000000   00000000001 000000000000000000000000000000                                                                           00000000000000000000000
12007030906 000400000000000000000774000000000000000007749900000000000HOSPITAL DEL NIÑO JESUS       000000000225000000000000225000000000000000000000000000000000000000000000000000000000000022500000000000000000000000000000000000000000000000000000000000000000   00000000001 000000000000000000000000000000                                                                           00000000000000000000000
12007030906 000400000000000000000773000000000000000007739900000000000DIRECCION GENERAL DE CONTRATAC000000000100000000000000100000000000000000000000000000000000000000000000000000000000000010000000000000000000000000000000000000000000000000000000000000000000   00000000001 000000000000000000000000000000                                                                           00000000000000000000000
12007030906 000300000000000000000266000000000000000002669900000000000CONSUMIDOR FINAL              000000000124000000000000000000000000000102479210000000000002152100000000000000000000000000000000000000000000000000000000000000000000000000000000000000000000   00000000001 000000000000000000000000000000                                                                           00000000000000000000000
12007030906 000300000000000000000267000000000000000002679900000000000CONSUMIDOR FINAL              000000000015000000000000000000000000000012397210000000000000260300000000000000000000000000000000000000000000000000000000000000000000000000000000000000000000   00000000001 000000000000000000000000000000                                                                           00000000000000000000000
12007031206 000300000000000000000268000000000000000002689900000000000CONSUMIDOR FINAL              000000000004000000000000000000000000000003306210000000000000069400000000000000000000000000000000000000000000000000000000000000000000000000000000000000000000   00000000001 000000000000000000000000000000                                                                           00000000000000000000000
12007031206 000300000000000000000269000000000000000002699900000000000CONSUMIDOR FINAL              000000000004000000000000000000000000000003306210000000000000069400000000000000000000000000000000000000000000000000000000000000000000000000000000000000000000   00000000001 000000000000000000000000000000                                                                           00000000000000000000000
12007031206 000300000000000000000270000000000000000002709900000000000CONSUMIDOR FINAL              000000000015000000000000000000000000000012397210000000000000260300000000000000000000000000000000000000000000000000000000000000000000000000000000000000000000   00000000001 000000000000000000000000000000                                                                           00000000000000000000000
12007031208 000400000000000000000775000000000000000007759900000000000HOSPITAL DEL NIÑO JESUS       000000000225000000000000225000000000000000000000000000000000000000000000000000000000000022500000000000000000000000000000000000000000000000000000000000000000   00000000001 000000000000000000000000000000                                                                           00000000000000000000000
12007031306 000300000000000000000271000000000000000002719900000000000CONSUMIDOR FINAL              000000000004000000000000000000000000000003306210000000000000069400000000000000000000000000000000000000000000000000000000000000000000000000000000000000000000   00000000001 000000000000000000000000000000                                                                           00000000000000000000000
12007031506 000300000000000000000273000000000000000002739900000000000CONSUMIDOR FINAL              000000000004000000000000004000000000000000000000000000000000000000000000000000000000000000400000000000000000000000000000000000000000000000000000000000000000   00000000001 000000000000000000000000000000                                                                           00000000000000000000000
12007031506 000300000000000000000272000000000000000002729900000000000CONSUMIDOR FINAL              000000000004000000000000004000000000000000000000000000000000000000000000000000000000000000400000000000000000000000000000000000000000000000000000000000000000   00000000001 000000000000000000000000000000                                                                           00000000000000000000000
12007031606 000300000000000000000276000000000000000002769900000000000CONSUMIDOR FINAL              000000000004000000000000000000000000000003306210000000000000069400000000000000000000000000000000000000000000000000000000000000000000000000000000000000000000   00000000001 000000000000000000000000000000                                                                           00000000000000000000000
12007032006 000400000000000000000776000000000000000007769900000000000DIRECCION GENERAL DE CONTRATAC000000000097800000000000097800000000000000000000000000000000000000000000000000000000000009780000000000000000000000000000000000000000000000000000000000000000   00000000001 000000000000000000000000000000                                                                           00000000000000000000000
12007032108 000400000000000000000779000000000000000007799900000000000SANATORIO MODELO Y OTROS UTE (000000000001133000000000001133000000000000000000000000000000000000000000000000000000000000113300000000000000000000000000000000000000000000000000000000000000   00000000001 000000000000000000000000000000                                                                           00000000000000000000000
12007032108 000400000000000000000780000000000000000007809900000000000SANATORIO MODELO Y OTROS UTE (000000000000150000000000000150000000000000000000000000000000000000000000000000000000000000015000000000000000000000000000000000000000000000000000000000000000   00000000001 000000000000000000000000000000                                                                           00000000000000000000000
12007032106 000400000000000000000778000000000000000007789900000000000I.N.S.S.J.P  ( PAMI )         000000000043780000000000043780000000000000000000000000000000000000000000000000000000000004378000000000000000000000000000000000000000000000000000000000000000   00000000001 000000000000000000000000000000                                                                           00000000000000000000000
12007032106 000400000000000000000777000000000000000007779900000000000I.N.S.S.J.P  ( PAMI )         000000000042920000000000042920000000000000000000000000000000000000000000000000000000000004292000000000000000000000000000000000000000000000000000000000000000   00000000001 000000000000000000000000000000                                                                           00000000000000000000000
12007032206 000300000000000000000277000000000000000002779900000000000CONSUMIDOR FINAL              000000000016000000000000000000000000000013223210000000000000277700000000000000000000000000000000000000000000000000000000000000000000000000000000000000000000   00000000001 000000000000000000000000000000                                                                           00000000000000000000000
12007032606 000400000000000000000781000000000000000007819900000000000DIRECCION GENERAL DE CONTRATAC000000000021000000000000021000000000000000000000000000000000000000000000000000000000000002100000000000000000000000000000000000000000000000000000000000000000   00000000001 000000000000000000000000000000                                                                           00000000000000000000000
12007032607 000400000000000000000786000000000000000007869900000000000SUBS.DE SALUD - RECIPROCIDAD  000000000002500000000000002500000000000000000000000000000000000000000000000000000000000000250000000000000000000000000000000000000000000000000000000000000000   00000000001 000000000000000000000000000000                                                                           00000000000000000000000
12007032607 000400000000000000000788000000000000000007889900000000000PERSONAL SANID. LUIS PASTEUR -000000000007236000000000007236000000000000000000000000000000000000000000000000000000000000723600000000000000000000000000000000000000000000000000000000000000   00000000001 000000000000000000000000000000                                                                           00000000000000000000000
12007032607 000400000000000000000789000000000000000007899900000000000PERSONAL SANID. LUIS PASTEUR -000000000000718000000000000718000000000000000000000000000000000000000000000000000000000000071800000000000000000000000000000000000000000000000000000000000000   00000000001 000000000000000000000000000000                                                                           00000000000000000000000
12007032607 000400000000000000000782000000000000000007829900000000000O.SOC.DE AGENTES DE PROPAGANDA000000000008745000000000008745000000000000000000000000000000000000000000000000000000000000874500000000000000000000000000000000000000000000000000000000000000   00000000001 000000000000000000000000000000                                                                           00000000000000000000000
12007032607 000400000000000000000783000000000000000007839900000000000OBRA SOCIAL DE PRENSA         000000000004480000000000004480000000000000000000000000000000000000000000000000000000000000448000000000000000000000000000000000000000000000000000000000000000   00000000001 000000000000000000000000000000                                                                           00000000000000000000000
12007032607 000400000000000000000785000000000000000007859900000000000OBRA SOCIAL PATRONES DE CABOTA000000000000200000000000000200000000000000000000000000000000000000000000000000000000000000020000000000000000000000000000000000000000000000000000000000000000   00000000001 000000000000000000000000000000                                                                           00000000000000000000000
12007032608 000400000000000000000792000000000000000007929900000000000O.SOC. DE SEGUROS,REASEGUROS (000000000000313000000000000313000000000000000000000000000000000000000000000000000000000000031300000000000000000000000000000000000000000000000000000000000000   00000000001 000000000000000000000000000000                                                                           00000000000000000000000
12007032608 000400000000000000000791000000000000000007919900000000000SIPAS - OSMATA                000000000001808000000000001808000000000000000000000000000000000000000000000000000000000000180800000000000000000000000000000000000000000000000000000000000000   00000000001 000000000000000000000000000000                                                                           00000000000000000000000
12007032608 000400000000000000000784000000000000000007849900000000000SUBSIDIO DE SALUD             000000000023829000000000023829000000000000000000000000000000000000000000000000000000000002382900000000000000000000000000000000000000000000000000000000000000   00000000001 000000000000000000000000000000                                                                           00000000000000000000000
12007032608 000400000000000000000790000000000000000007909900000000000MEDICUS (CRED. CELESTE, AZUL, 000000000000862000000000000862000000000000000000000000000000000000000000000000000000000000086200000000000000000000000000000000000000000000000000000000000000   00000000001 000000000000000000000000000000                                                                           00000000000000000000000
12007032606 000400000000000000000822000000000000000008229900000000000SEGURO MATERNO INFANTIL       000000000062500000000000062500000000000000000000000000000000000000000000000000000000000006250000000000000000000000000000000000000000000000000000000000000000   00000000001 000000000000000000000000000000                                                                           00000000000000000000000
12007032606 000400000000000000000817000000000000000008179900000000000OBRA SOCIAL DE PRENSA         000000000161000000000000161000000000000000000000000000000000000000000000000000000000000016100000000000000000000000000000000000000000000000000000000000000000   00000000001 000000000000000000000000000000                                                                           00000000000000000000000
12007032606 000400000000000000000821000000000000000008219900000000000SUBS.DE SALUD - RECIPROCIDAD  000000000007500000000000007500000000000000000000000000000000000000000000000000000000000000750000000000000000000000000000000000000000000000000000000000000000   00000000001 000000000000000000000000000000                                                                           00000000000000000000000
12007032606 000400000000000000000818000000000000000008189900000000000PODER JUDICIAL DE LA NACION   000000000030500000000000030500000000000000000000000000000000000000000000000000000000000003050000000000000000000000000000000000000000000000000000000000000000   00000000001 000000000000000000000000000000                                                                           00000000000000000000000
12007032606 000300000000000000000819000000000000000008199900000000000SIPAS - OSMATA                000000000002732000000000002732000000000000000000000000000000000000000000000000000000000000273200000000000000000000000000000000000000000000000000000000000000   00000000001 000000000000000000000000000000                                                                           00000000000000000000000
12007032606 000400000000000000000820000000000000000008209900000000000SUBSIDIO DE SALUD             000000000897000000000000897000000000000000000000000000000000000000000000000000000000000089700000000000000000000000000000000000000000000000000000000000000000   00000000001 000000000000000000000000000000                                                                           00000000000000000000000
12007032606 000400000000000000000816000000000000000008169900000000000POLICIA FEDERAL ARGENTINA     000000000003500000000000003500000000000000000000000000000000000000000000000000000000000000350000000000000000000000000000000000000000000000000000000000000000   00000000001 000000000000000000000000000000                                                                           00000000000000000000000
12007032606 000400000000000000000799000000000000000007999900000000000OBRA SOCIAL DE PRENSA         000000000405446000000000405446000000000000000000000000000000000000000000000000000000000040544600000000000000000000000000000000000000000000000000000000000000   00000000001 000000000000000000000000000000                                                                           00000000000000000000000
12007032606 000400000000000000000815000000000000000008159900000000000O.SOC.DEL PERSONAL DE TELEVISI000000000014000000000000014000000000000000000000000000000000000000000000000000000000000001400000000000000000000000000000000000000000000000000000000000000000   00000000001 000000000000000000000000000000                                                                           00000000000000000000000
12007032606 000400000000000000000814000000000000000008149900000000000O. SOC. PERSONAL DE FARMACIA (000000000003500000000000003500000000000000000000000000000000000000000000000000000000000000350000000000000000000000000000000000000000000000000000000000000000   00000000001 000000000000000000000000000000                                                                           00000000000000000000000
12007032606 000400000000000000000811000000000000000008119900000000000PERSONAL SANID. LUIS PASTEUR -000000000003500000000000003500000000000000000000000000000000000000000000000000000000000000350000000000000000000000000000000000000000000000000000000000000000   00000000001 000000000000000000000000000000                                                                           00000000000000000000000
12007032606 000400000000000000000812000000000000000008129900000000000MEDICUS (CRED. CELESTE, AZUL, 000000000004129000000000004129000000000000000000000000000000000000000000000000000000000000412900000000000000000000000000000000000000000000000000000000000000   00000000001 000000000000000000000000000000                                                                           00000000000000000000000
12007032606 000400000000000000000813000000000000000008139900000000000O.S.F.A.                      000000000013830000000000013830000000000000000000000000000000000000000000000000000000000001383000000000000000000000000000000000000000000000000000000000000000   00000000001 000000000000000000000000000000                                                                           00000000000000000000000
12007032606 000400000000000000000808000000000000000008089900000000000ACCION SOC. DE LA U.T.N. (DASU000000000023500000000000023500000000000000000000000000000000000000000000000000000000000002350000000000000000000000000000000000000000000000000000000000000000   00000000001 000000000000000000000000000000                                                                           00000000000000000000000
12007032606 000400000000000000000809000000000000000008099900000000000I.O.S.E.                      000000000007000000000000007000000000000000000000000000000000000000000000000000000000000000700000000000000000000000000000000000000000000000000000000000000000   00000000001 000000000000000000000000000000                                                                           00000000000000000000000
12007032606 000400000000000000000810000000000000000008109900000000000JERARQUICOS SALUD (PRACTICAS) 000000000007000000000000007000000000000000000000000000000000000000000000000000000000000000700000000000000000000000000000000000000000000000000000000000000000   00000000001 000000000000000000000000000000                                                                           00000000000000000000000
12007032606 000400000000000000000804000000000000000008049900000000000COLSALUD ASISTIR. - PRACTICAS 000000000003500000000000003500000000000000000000000000000000000000000000000000000000000000350000000000000000000000000000000000000000000000000000000000000000   00000000001 000000000000000000000000000000                                                                           00000000000000000000000
12007032606 000400000000000000000805000000000000000008059900000000000BOREAL COBERTURA DE SALUD     000000000091000000000000091000000000000000000000000000000000000000000000000000000000000009100000000000000000000000000000000000000000000000000000000000000000   00000000001 000000000000000000000000000000                                                                           00000000000000000000000
12007032606 000400000000000000000806000000000000000008069900000000000CONINTEM S.A. ( O.S.PE.GA.P. )000000000003500000000000003500000000000000000000000000000000000000000000000000000000000000350000000000000000000000000000000000000000000000000000000000000000   00000000001 000000000000000000000000000000                                                                           00000000000000000000000
12007032606 000400000000000000000801000000000000000008019900000000000SUBS.DE SALUD - RECIPROCIDAD  000000000039784000000000039784000000000000000000000000000000000000000000000000000000000003978400000000000000000000000000000000000000000000000000000000000000   00000000001 000000000000000000000000000000                                                                           00000000000000000000000
12007032606 000400000000000000000802000000000000000008029900000000000A.M.F.F.A. ASOC.MUT.FARMACEUTI000000000003500000000000003500000000000000000000000000000000000000000000000000000000000000350000000000000000000000000000000000000000000000000000000000000000   00000000001 000000000000000000000000000000                                                                           00000000000000000000000
12007032606 000400000000000000000803000000000000000008039900000000000O.SOC.DE AGENTES DE PROPAGANDA000000000054000000000000054000000000000000000000000000000000000000000000000000000000000005400000000000000000000000000000000000000000000000000000000000000000   00000000001 000000000000000000000000000000                                                                           00000000000000000000000
12007032606 000400000000000000000797000000000000000007979900000000000O.S.F.A.                      000000000049813000000000049813000000000000000000000000000000000000000000000000000000000004981300000000000000000000000000000000000000000000000000000000000000   00000000001 000000000000000000000000000000                                                                           00000000000000000000000
12007032606 000400000000000000000798000000000000000007989900000000000O. SOC. PERSONAL DE FARMACIA (000000000035220000000000035220000000000000000000000000000000000000000000000000000000000003522000000000000000000000000000000000000000000000000000000000000000   00000000001 000000000000000000000000000000                                                                           00000000000000000000000
12007032606 000400000000000000000800000000000000000008009900000000000SUBSIDIO DE SALUD             000000002141933000000002141933000000000000000000000000000000000000000000000000000000000214193300000000000000000000000000000000000000000000000000000000000000   00000000001 000000000000000000000000000000                                                                           00000000000000000000000
12007032606 000400000000000000000794000000000000000007949900000000000A.M.F.- O.S.JE.R.A. (PLAN B)  000000000047412000000000047412000000000000000000000000000000000000000000000000000000000004741200000000000000000000000000000000000000000000000000000000000000   00000000001 000000000000000000000000000000                                                                           00000000000000000000000
12007032606 000400000000000000000795000000000000000007959900000000000JERARQUICOS SALUD (PRACTICAS) 000000000072098000000000072098000000000000000000000000000000000000000000000000000000000007209800000000000000000000000000000000000000000000000000000000000000   00000000001 000000000000000000000000000000                                                                           00000000000000000000000
12007032606 000400000000000000000796000000000000000007969900000000000PERSONAL SANID. LUIS PASTEUR -000000000037423000000000037423000000000000000000000000000000000000000000000000000000000003742300000000000000000000000000000000000000000000000000000000000000   00000000001 000000000000000000000000000000                                                                           00000000000000000000000
12007032606 000400000000000000000823000000000000000008239900000000000A.C.A. SALUD - COOP. DE PREST.000000000007000000000000007000000000000000000000000000000000000000000000000000000000000000700000000000000000000000000000000000000000000000000000000000000000   00000000001 000000000000000000000000000000                                                                           00000000000000000000000
12007032606 000400000000000000000793000000000000000007939900000000000A.M.F.F.A. ASOC.MUT.FARMACEUTI000000000035708000000000035708000000000000000000000000000000000000000000000000000000000003570800000000000000000000000000000000000000000000000000000000000000   00000000001 000000000000000000000000000000                                                                           00000000000000000000000
12007032606 000400000000000000000787000000000000000007879900000000000PODER JUDICIAL DE LA NACION   000000000042000000000000042000000000000000000000000000000000000000000000000000000000000004200000000000000000000000000000000000000000000000000000000000000000   00000000001 000000000000000000000000000000                                                                           00000000000000000000000
12007032602 000300000000000000000508000000000000000005088030707094261COLMED (PLAN PROTECCION VITAL)000000000005525000000000000000000000000005000105000000000000052500000000000000000000000000000000000000000000000000000000000000000000000000000000000000000000   00000000001 000000000000000000000000000000                                                                           00000000000000000000000
12007032602 000300000000000000000506000000000000000005068030707094261COLMED S.R.L.  (PLAN VERDE) CO000000000001658000000000000000000000000001500105000000000000015800000000000000000000000000000000000000000000000000000000000000000000000000000000000000000000   00000000001 000000000000000000000000000000                                                                           00000000000000000000000
12007032602 000300000000000000000507000000000000000005078030707094261COLMED (PLAN PROTECCION INTEGR000000000005525000000000000000000000000005000105000000000000052500000000000000000000000000000000000000000000000000000000000000000000000000000000000000000000   00000000001 000000000000000000000000000000                                                                           00000000000000000000000
12007032602 000300000000000000000504000000000000000005048030707094261COLMED S.R.L.  (PLAN AZUL) CON000000000002210000000000000000000000000002000105000000000000021000000000000000000000000000000000000000000000000000000000000000000000000000000000000000000000   00000000001 000000000000000000000000000000                                                                           00000000000000000000000
12007032602 000300000000000000000505000000000000000005058030707094261COLMED S.R.L  (PLAN CELESTE)  000000000001105000000000000000000000000001000105000000000000010500000000000000000000000000000000000000000000000000000000000000000000000000000000000000000000   00000000001 000000000000000000000000000000                                                                           00000000000000000000000
12007032602 000300000000000000000502000000000000000005028030707094261COLMED (PLAN B,C,D,G,J,N,V,B20000000000000423000000000000000000000000000383105000000000000004000000000000000000000000000000000000000000000000000000000000000000000000000000000000000000000   00000000001 000000000000000000000000000000                                                                           00000000000000000000000
12007032602 000300000000000000000503000000000000000005038030707761896BOREAL COBERTURA DE SALUD     000000000002210000000000000000000000000002000105000000000000021000000000000000000000000000000000000000000000000000000000000000000000000000000000000000000000   00000000001 000000000000000000000000000000                                                                           00000000000000000000000
12007032601 000300000000000000000495000000000000000004958030707094261COLMED S.R.L  (PLAN CELESTE)  000000000003868000000000000000000000000003500105000000000000036800000000000000000000000000000000000000000000000000000000000000000000000000000000000000000000   00000000001 000000000000000000000000000000                                                                           00000000000000000000000
12007032602 000300000000000000000509000000000000000005098030707094261COLMED (PLAN B,C,D,G,J,N,V,B20000000000002210000000000000000000000000002000105000000000000021000000000000000000000000000000000000000000000000000000000000000000000000000000000000000000000   00000000001 000000000000000000000000000000                                                                           00000000000000000000000
12007032606 000400000000000000000819000000000000000008199900000000000SIPAS - OSMATA                000000000002732000000000002732000000000000000000000000000000000000000000000000000000000000273200000000000000000000000000000000000000000000000000000000000000   00000000001 000000000000000000000000000000                                                                           00000000000000000000000
12007032602 000300000000000000000501000000000000000005018030707094261COLMED (PLAN PROTECCION INTEGR000000000002550000000000000000000000000002308105000000000000024200000000000000000000000000000000000000000000000000000000000000000000000000000000000000000000   00000000001 000000000000000000000000000000                                                                           00000000000000000000000
12007032603 000300000000000000000488000000000000000004888030707094261COLMED (PLAN PROTECCION INTEGR000000000000107000000000000000000000000000097103000000000000001000000000000000000000000000000000000000000000000000000000000000000000000000000000000000000000   00000000001 000000000000000000000000000000                                                                           00000000000000000000000
12007032603 000300000000000000000489000000000000000004898030707094261COLMED (PLAN PROTECCION INTEGR000000000000107000000000000000000000000000097103000000000000001000000000000000000000000000000000000000000000000000000000000000000000000000000000000000000000   00000000001 000000000000000000000000000000                                                                           00000000000000000000000
12007032603 000300000000000000000490000000000000000004908030531994562ASOC.ECLESIASTICA SAN PEDRO - 000000000002685000000000000000000000000002430105000000000000025500000000000000000000000000000000000000000000000000000000000000000000000000000000000000000000   00000000001 000000000000000000000000000000                                                                           00000000000000000000000
12007032601 000300000000000000000491000000000000000004918030707094261COLMED (PLAN PROTECCION INTEGR000000000081742000000000000000000000000073975105000000000000776700000000000000000000000000000000000000000000000000000000000000000000000000000000000000000000   00000000001 000000000000000000000000000000                                                                           00000000000000000000000
12007032601 000300000000000000000494000000000000000004948030707094261COLMED S.R.L.  (PLAN AZUL) CON000000000011603000000000000000000000000010500105000000000000110300000000000000000000000000000000000000000000000000000000000000000000000000000000000000000000   00000000001 000000000000000000000000000000                                                                           00000000000000000000000
12007032601 000300000000000000000493000000000000000004938030707761896BOREAL COBERTURA DE SALUD     000000000007735000000000000000000000000007000105000000000000073500000000000000000000000000000000000000000000000000000000000000000000000000000000000000000000   00000000001 000000000000000000000000000000                                                                           00000000000000000000000
12007032601 000300000000000000000492000000000000000004928030531994562ASOC.ECLESIASTICA SAN PEDRO - 000000000003432000000000000000000000000003106105000000000000032600000000000000000000000000000000000000000000000000000000000000000000000000000000000000000000   00000000001 000000000000000000000000000000                                                                           00000000000000000000000
12007032601 000300000000000000000498000000000000000004988030707094261COLMED (PLAN PROTECCION INTEGR000000000042543000000000000000000000000038500105000000000000404300000000000000000000000000000000000000000000000000000000000000000000000000000000000000000000   00000000001 000000000000000000000000000000                                                                           00000000000000000000000
12007032601 000300000000000000000497000000000000000004978030707094261COL MED S.R.L. (PLAN M - CON I000000000003868000000000000000000000000003500105000000000000036800000000000000000000000000000000000000000000000000000000000000000000000000000000000000000000   00000000001 000000000000000000000000000000                                                                           00000000000000000000000
12007032601 000300000000000000000496000000000000000004968030707094261COLMED S.R.L.  (PLAN VERDE) CO000000000003868000000000000000000000000003500105000000000000036800000000000000000000000000000000000000000000000000000000000000000000000000000000000000000000   00000000001 000000000000000000000000000000                                                                           00000000000000000000000
12007032601 000300000000000000000500000000000000000005008030707094261COLMED (PLAN B,C,D,G,J,N,V,B20000000000007735000000000000000000000000007000105000000000000073500000000000000000000000000000000000000000000000000000000000000000000000000000000000000000000   00000000001 000000000000000000000000000000                                                                           00000000000000000000000
12007032601 000300000000000000000499000000000000000004998030707094261COLMED (PLAN PROTECCION VITAL)000000000019338000000000000000000000000017500105000000000000183800000000000000000000000000000000000000000000000000000000000000000000000000000000000000000000   00000000001 000000000000000000000000000000                                                                           00000000000000000000000
12007032706 000300000000000000000278000000000000000002789900000000000CONSUMIDOR FINAL              000000000065000000000000065000000000000000000000000000000000000000000000000000000000000006500000000000000000000000000000000000000000000000000000000000000000   00000000001 000000000000000000000000000000                                                                           00000000000000000000000
12007032806 000300000000000000000279000000000000000002799900000000000CONSUMIDOR FINAL              000000000004000000000000000000000000000003306210000000000000069400000000000000000000000000000000000000000000000000000000000000000000000000000000000000000000   00000000001 000000000000000000000000000000                                                                           00000000000000000000000
12007032806 000400000000000000000825000000000000000008259900000000000HOSPITAL DEL NIÑO JESUS       000000000019000000000000019000000000000000000000000000000000000000000000000000000000000001900000000000000000000000000000000000000000000000000000000000000000   00000000001 000000000000000000000000000000                                                                           00000000000000000000000
12007032806 000400000000000000000826000000000000000008269900000000000HOSPITAL DEL NIÑO JESUS       000000000010000000000000010000000000000000000000000000000000000000000000000000000000000001000000000000000000000000000000000000000000000000000000000000000000   00000000001 000000000000000000000000000000                                                                           00000000000000000000000
12007032806 000400000000000000000824000000000000000008249900000000000HOSPITAL PADILLA              000000000031000000000000031000000000000000000000000000000000000000000000000000000000000003100000000000000000000000000000000000000000000000000000000000000000   00000000001 000000000000000000000000000000                                                                           00000000000000000000000
12007032906 000300000000000000000282000000000000000002829900000000000CONSUMIDOR FINAL              000000000002000000000000000000000000000001653210000000000000034700000000000000000000000000000000000000000000000000000000000000000000000000000000000000000000   00000000001 000000000000000000000000000000                                                                           00000000000000000000000
12007032906 000300000000000000000280000000000000000002809900000000000CONSUMIDOR FINAL              000000000035000000000000035000000000000000000000000000000000000000000000000000000000000003500000000000000000000000000000000000000000000000000000000000000000   00000000001 000000000000000000000000000000                                                                           00000000000000000000000
12007032906 000300000000000000000281000000000000000002819900000000000CONSUMIDOR FINAL              000000000004000000000000000000000000000003306210000000000000069400000000000000000000000000000000000000000000000000000000000000000000000000000000000000000000   00000000001 000000000000000000000000000000                                                                           00000000000000000000000
12007032906 000400000000000000000827000000000000000008279900000000000DIRECCION GENERAL DE CONTRATAC000000000130000000000000130000000000000000000000000000000000000000000000000000000000000013000000000000000000000000000000000000000000000000000000000000000000   00000000001 000000000000000000000000000000                                                                           00000000000000000000000
12007032906 000300000000000000000283000000000000000002839900000000000CONSUMIDOR FINAL              000000000038800000000000000000000000000032066210000000000000673400000000000000000000000000000000000000000000000000000000000000000000000000000000000000000000   00000000001 000000000000000000000000000000                                                                           00000000000000000000000
12007033106 000400000000000000000841000000000000000008419900000000000CENTRO PRIVADO DE CARDIOLOGIA 000000000008000000000000008000000000000000000000000000000000000000000000000000000000000000800000000000000000000000000000000000000000000000000000000000000000   00000000001 000000000000000000000000000000                                                                           00000000000000000000000
12007033106 000400000000000000000834000000000000000008349900000000000PROFE                         000000000042000000000000042000000000000000000000000000000000000000000000000000000000000004200000000000000000000000000000000000000000000000000000000000000000   00000000001 000000000000000000000000000000                                                                           00000000000000000000000
12007033106 000400000000000000000837000000000000000008379900000000000MINISTERIO DE SALUD PUBLICA DE000000000130000000000000130000000000000000000000000000000000000000000000000000000000000013000000000000000000000000000000000000000000000000000000000000000000   00000000001 000000000000000000000000000000                                                                           00000000000000000000000
12007033106 000400000000000000000843000000000000000008439900000000000O.S.S.E.I.S.J.                000000000010500000000000010500000000000000000000000000000000000000000000000000000000000001050000000000000000000000000000000000000000000000000000000000000000   00000000001 000000000000000000000000000000                                                                           00000000000000000000000
12007033106 000400000000000000000839000000000000000008399900000000000HOSPITAL PADILLA              000000000023000000000000023000000000000000000000000000000000000000000000000000000000000002300000000000000000000000000000000000000000000000000000000000000000   00000000001 000000000000000000000000000000                                                                           00000000000000000000000
12007033106 000400000000000000000840000000000000000008409900000000000HOSPITAL PADILLA              000000000041000000000000041000000000000000000000000000000000000000000000000000000000000004100000000000000000000000000000000000000000000000000000000000000000   00000000001 000000000000000000000000000000                                                                           00000000000000000000000
12007033106 000400000000000000000832000000000000000008329900000000000O.S.DO.P.                     000000000028719000000000028719000000000000000000000000000000000000000000000000000000000002871900000000000000000000000000000000000000000000000000000000000000   00000000001 000000000000000000000000000000                                                                           00000000000000000000000
12007033106 000400000000000000000842000000000000000008429900000000000GALENO ARGENTINA - GRAL       000000000003000000000000003000000000000000000000000000000000000000000000000000000000000000300000000000000000000000000000000000000000000000000000000000000000   00000000001 000000000000000000000000000000                                                                           00000000000000000000000
12007033106 000400000000000000000833000000000000000008339900000000000O.S.P.E.R.Y.H.R.A.            000000000010209000000000010209000000000000000000000000000000000000000000000000000000000001020900000000000000000000000000000000000000000000000000000000000000   00000000001 000000000000000000000000000000                                                                           00000000000000000000000
12007033106 000400000000000000000828000000000000000008289900000000000O.S.E.P.                      000000000305125000000000305125000000000000000000000000000000000000000000000000000000000030512500000000000000000000000000000000000000000000000000000000000000   00000000001 000000000000000000000000000000                                                                           00000000000000000000000
12007033106 000400000000000000000836000000000000000008369900000000000ACCION SOCIAL DE LA U.N.T.    000000000384028000000000384028000000000000000000000000000000000000000000000000000000000038402800000000000000000000000000000000000000000000000000000000000000   00000000001 000000000000000000000000000000                                                                           00000000000000000000000
12007033101 000300000000000000000512000000000000000005128030550245309OMINT S.A. de SERVICIOS       000000000009047000000000000000000000000008187105000000000000086000000000000000000000000000000000000000000000000000000000000000000000000000000000000000000000   00000000001 000000000000000000000000000000                                                                           00000000000000000000000
12007033101 000300000000000000000532000000000000000005328030522428163GALENO ARGENTINA S.A. (SOCIOS 000000000249951000000000000000000000000226200105000000000002375100000000000000000000000000000000000000000000000000000000000000000000000000000000000000000000   00000000001 000000000000000000000000000000                                                                           00000000000000000000000
12007033101 000300000000000000000520000000000000000005208030547577771ORGANIZACION GALVEZ S.A.      000000000003315000000000000000000000000003000105000000000000031500000000000000000000000000000000000000000000000000000000000000000000000000000000000000000000   00000000001 000000000000000000000000000000                                                                           00000000000000000000000
12007033101 000300000000000000000510000000000000000005108030546057948CLINICA MAYO DE U.M.C.B. S.R.L000000000065000000000000065000000000000000000000000000000000000000000000000000000000000006500000000000000000000000000000000000000000000000000000000000000000   00000000001 000000000000000000000000000000                                                                           00000000000000000000000
12007033101 000300000000000000000535000000000000000005358030550194283SERVESALUD (SERV.EMPRES.EN SAL000000000019000000000000019000000000000000000000000000000000000000000000000000000000000001900000000000000000000000000000000000000000000000000000000000000000   00000000001 000000000000000000000000000000                                                                           00000000000000000000000
12007033101 000300000000000000000527000000000000000005278030522783508M.I.T.A.                      000000000004500000000000004500000000000000000000000000000000000000000000000000000000000000450000000000000000000000000000000000000000000000000000000000000000   00000000001 000000000000000000000000000000                                                                           00000000000000000000000
12007033101 000300000000000000000528000000000000000005288030522783508M.I.T.A.                      000000000006630000000000000000000000000006000105000000000000063000000000000000000000000000000000000000000000000000000000000000000000000000000000000000000000   00000000001 000000000000000000000000000000                                                                           00000000000000000000000
12007033101 000300000000000000000511000000000000000005118030550245309OMINT S.A. de SERVICIOS       000000000012329000000000012329000000000000000000000000000000000000000000000000000000000001232900000000000000000000000000000000000000000000000000000000000000   00000000001 000000000000000000000000000000                                                                           00000000000000000000000
12007033101 000300000000000000000530000000000000000005308030522428163GALENO ARGENTINA S.A. (SOCIOS 000000000027595000000000000000000000000024973105000000000000262200000000000000000000000000000000000000000000000000000000000000000000000000000000000000000000   00000000001 000000000000000000000000000000                                                                           00000000000000000000000
12007033101 000300000000000000000522000000000000000005228030707761896BOREAL COBERTURA DE SALUD     000000000055867000000000055867000000000000000000000000000000000000000000000000000000000005586700000000000000000000000000000000000000000000000000000000000000   00000000001 000000000000000000000000000000                                                                           00000000000000000000000
12007033101 000300000000000000000526000000000000000005268030546057948CLINICA MAYO DE U.M.C.B. S.R.L000000000005100000000000005100000000000000000000000000000000000000000000000000000000000000510000000000000000000000000000000000000000000000000000000000000000   00000000001 000000000000000000000000000000                                                                           00000000000000000000000
12007033101 000300000000000000000514000000000000000005148030546741253OSDE                          000000000341170000000000177692000000000147944105000000000001553400000000000000000000000017769200000000000000000000000000000000000000000000000000000000000000   00000000001 000000000000000000000000000000                                                                           00000000000000000000000
12007033101 000300000000000000000523000000000000000005238030707761896BOREAL COBERTURA DE SALUD     000000000070000000000000070000000000000000000000000000000000000000000000000000000000000007000000000000000000000000000000000000000000000000000000000000000000   00000000001 000000000000000000000000000000                                                                           00000000000000000000000
12007033101 000300000000000000000524000000000000000005248030707761896BOREAL COBERTURA DE SALUD     000000000004973000000000000000000000000004500105000000000000047300000000000000000000000000000000000000000000000000000000000000000000000000000000000000000000   00000000001 000000000000000000000000000000                                                                           00000000000000000000000
12007033101 000300000000000000000515000000000000000005158030708008040RED DE SEGURO MEDICO S.R.L.   000000000145217000000000000000000000000131418105000000000001379900000000000000000000000000000000000000000000000000000000000000000000000000000000000000000000   00000000001 000000000000000000000000000000                                                                           00000000000000000000000
12007033101 000300000000000000000536000000000000000005368030707374906SIAME S.R.L. (UNION PERSONAL -000000000116267000000000116267000000000000000000000000000000000000000000000000000000000011626700000000000000000000000000000000000000000000000000000000000000   00000000001 000000000000000000000000000000                                                                           00000000000000000000000
12007033101 000300000000000000000537000000000000000005378030707374906SIAME S.R.L. (UNION PERSONAL) 000000000131418000000000131418000000000000000000000000000000000000000000000000000000000013141800000000000000000000000000000000000000000000000000000000000000   00000000001 000000000000000000000000000000                                                                           00000000000000000000000
12007033101 000300000000000000000538000000000000000005388030707374906SIAME S.R.L. (UNION PERSONAL -000000000004000000000000004000000000000000000000000000000000000000000000000000000000000000400000000000000000000000000000000000000000000000000000000000000000   00000000001 000000000000000000000000000000                                                                           00000000000000000000000
12007033101 000300000000000000000517000000000000000005178030679970808A.S.T. OSFATUN                000000000055867000000000055867000000000000000000000000000000000000000000000000000000000005586700000000000000000000000000000000000000000000000000000000000000   00000000001 000000000000000000000000000000                                                                           00000000000000000000000
12007033101 000300000000000000000529000000000000000005298020080822767RICARDO MORA                  000000000002763000000000000000000000000002500105000000000000026300000000000000000000000000000000000000000000000000000000000000000000000000000000000000000000   00000000001 000000000000000000000000000000                                                                           00000000000000000000000
12007033101 000300000000000000000525000000000000000005258030654855168SWISS MEDICAL S.A.            000000000525046000000000330305000000000176236105000000000001850500000000000000000000000033030500000000000000000000000000000000000000000000000000000000000000   00000000001 000000000000000000000000000000                                                                           00000000000000000000000
12007033101 000300000000000000000516000000000000000005168030708008040RED DE SEGURO MEDICO S.R.L.   000000000035360000000000000000000000000032000105000000000000336000000000000000000000000000000000000000000000000000000000000000000000000000000000000000000000   00000000001 000000000000000000000000000000                                                                           00000000000000000000000
12007033101 000300000000000000000513000000000000000005138030546741253OSDE                          000000000351029000000000133811000000000196577105000000000002064100000000000000000000000013381100000000000000000000000000000000000000000000000000000000000000   00000000001 000000000000000000000000000000                                                                           00000000000000000000000
12007033106 000400000000000000000844000000000000000008449900000000000SANATORIO MODELO Y OTROS UTE (000000000029321000000000029321000000000000000000000000000000000000000000000000000000000002932100000000000000000000000000000000000000000000000000000000000000   00000000001 000000000000000000000000000000                                                                           00000000000000000000000
12007033106 000400000000000000000846000000000000000008469900000000000IOSEP                         000000000026046000000000026046000000000000000000000000000000000000000000000000000000000002604600000000000000000000000000000000000000000000000000000000000000   00000000001 000000000000000000000000000000                                                                           00000000000000000000000
12007033106 000400000000000000000847000000000000000008479900000000000OBRA SOCIAL DE PRENSA         000000000143500000000000143500000000000000000000000000000000000000000000000000000000000014350000000000000000000000000000000000000000000000000000000000000000   00000000001 000000000000000000000000000000                                                                           00000000000000000000000
12007033106 000400000000000000000838000000000000000008389900000000000APAPHARMA S.A. (OSPAT)        000000000003000000000000003000000000000000000000000000000000000000000000000000000000000000300000000000000000000000000000000000000000000000000000000000000000   00000000001 000000000000000000000000000000                                                                           00000000000000000000000
12007033106 000400000000000000000845000000000000000008459900000000000IOSEP                         000000000161449000000000161449000000000000000000000000000000000000000000000000000000000016144900000000000000000000000000000000000000000000000000000000000000   00000000001 000000000000000000000000000000                                                                           00000000000000000000000
12007033106 000400000000000000000829000000000000000008299900000000000O.S.E.P.                      000000000010000000000000010000000000000000000000000000000000000000000000000000000000000001000000000000000000000000000000000000000000000000000000000000000000   00000000001 000000000000000000000000000000                                                                           00000000000000000000000
12007033106 000400000000000000000835000000000000000008359900000000000ACCION SOCIAL DE LA U.N.T.    000000000250469000000000250469000000000000000000000000000000000000000000000000000000000025046900000000000000000000000000000000000000000000000000000000000000   00000000001 000000000000000000000000000000                                                                           00000000000000000000000
12007033101 000300000000000000000534000000000000000005348030682737650MEDIFE ASOCIACION CIVIL       000000000008288000000000000000000000000007500105000000000000078800000000000000000000000000000000000000000000000000000000000000000000000000000000000000000000   00000000001 000000000000000000000000000000                                                                           00000000000000000000000
12007033101 000300000000000000000531000000000000000005318030522428163GALENO ARGENTINA S.A. (SOCIOS 000000000045600000000000045600000000000000000000000000000000000000000000000000000000000004560000000000000000000000000000000000000000000000000000000000000000   00000000001 000000000000000000000000000000                                                                           00000000000000000000000
12007033101 000300000000000000000533000000000000000005338030682737650MEDIFE ASOCIACION CIVIL       000000000003000000000000003000000000000000000000000000000000000000000000000000000000000000300000000000000000000000000000000000000000000000000000000000000000   00000000001 000000000000000000000000000000                                                                           00000000000000000000000
12007033101 000300000000000000000521000000000000000005218030616753157SANATORIO PARQUE S.A.         000000000009636000000000000000000000000008720105000000000000091600000000000000000000000000000000000000000000000000000000000000000000000000000000000000000000   00000000001 000000000000000000000000000000                                                                           00000000000000000000000
12007033101 000300000000000000000518000000000000000005188030547577771ORGANIZACION GALVEZ S.A.      000000000045736000000000045736000000000000000000000000000000000000000000000000000000000004573600000000000000000000000000000000000000000000000000000000000000   00000000001 000000000000000000000000000000                                                                           00000000000000000000000
12007033101 000300000000000000000519000000000000000005198030547577771ORGANIZACION GALVEZ S.A.      000000000127571000000000000000000000000115449105000000000001212200000000000000000000000000000000000000000000000000000000000000000000000000000000000000000000   00000000001 000000000000000000000000000000                                                                           00000000000000000000000


