10000000006 000100003570000035700008030647889065HONORABLE LEGISLATURA DE TUCUM00000000100000000000000000000000000000082644600000000017355400000000000000000000000000000000000000000000000000000000000000000000000000000000000000000000000000000000004   000000000000000000000000000000000000000000
10000000006 000100003571000035710008030647889065HONORABLE LEGISLATURA DE TUCUM00000000070000000000000000000000000000000000000000000000000000000000000000000000000070000000000000000000000000000000000000000000000000000000000000000000000000000000004   000000000000000000000000000000000000000000
10000000006 000100003572000035720008030647889065HONORABLE LEGISLATURA DE TUCUM00000000030000000000000000000000000000000000000000000000000000000000000000000000000030000000000000000000000000000000000000000000000000000000000000000000000000000000004   000000000000000000000000000000000000000000
10000000006 000100003573000035730008030675264194MUNICIPALIDAD BANDA RIO SALI  00000000044000000000000000000000000000036363600000000007636400000000000000000000000000000000000000000000000000000000000000000000000000000000000000000000000000000000004   000000000000000000000000000000000000000000
10000000006 000100003574000035740008030675264194MUNICIPALIDAD BANDA RIO SALI  00000000035000000000000000000000000000000000000000000000000000000000000000000000000035000000000000000000000000000000000000000000000000000000000000000000000000000000004   000000000000000000000000000000000000000000
10000000006 000100003575000035750008030675264194MUNICIPALIDAD BANDA RIO SALI  00000000021000000000000000000000000000000000000000000000000000000000000000000000000021000000000000000000000000000000000000000000000000000000000000000000000000000000004   000000000000000000000000000000000000000000
10000000006 000100003576000035760008030680025254MUNICIPALIDAD DE ALDERETES    00000000044000000000000000000000000000036363600000000007636400000000000000000000000000000000000000000000000000000000000000000000000000000000000000000000000000000000004   000000000000000000000000000000000000000000
10000000006 000100003577000035770008030680025254MUNICIPALIDAD DE ALDERETES    00000000035000000000000000000000000000000000000000000000000000000000000000000000000035000000000000000000000000000000000000000000000000000000000000000000000000000000004   000000000000000000000000000000000000000000
10000000006 000100003578000035780008030680025254MUNICIPALIDAD DE ALDERETES    00000000021000000000000000000000000000000000000000000000000000000000000000000000000021000000000000000000000000000000000000000000000000000000000000000000000000000000004   000000000000000000000000000000000000000000
10000000006 000100003579000035790008030675428081SECRETARIA DE ESTADO DE PRENSA00000000380000000000000000000000000000314049600000000065950400000000000000000000000000000000000000000000000000000000000000000000000000000000000000000000000000000000004   000000000000000000000000000000000000000000
10000000006 000100003580000035800008030675428081SECRETARIA DE ESTADO DE PRENSA00000000310000000000000000000000000000000000000000000000000000000000000000000000000310000000000000000000000000000000000000000000000000000000000000000000000000000000004   000000000000000000000000000000000000000000
10000000006 000100003581000035810008030675428081SECRETARIA DE ESTADO DE PRENSA00000000070000000000000000000000000000000000000000000000000000000000000000000000000070000000000000000000000000000000000000000000000000000000000000000000000000000000004   000000000000000000000000000000000000000000
10000000006 000100003582000035820008030685704397MUNICIPALIDAD DE BELLA VISTA  00000000044000000000000000000000000000036363600000000007636400000000000000000000000000000000000000000000000000000000000000000000000000000000000000000000000000000000004   000000000000000000000000000000000000000000
10000000006 000100003583000035830008030685704397MUNICIPALIDAD DE BELLA VISTA  00000000035000000000000000000000000000000000000000000000000000000000000000000000000035000000000000000000000000000000000000000000000000000000000000000000000000000000004   000000000000000000000000000000000000000000
10000000006 000100003584000035840008030685704397MUNICIPALIDAD DE BELLA VISTA  00000000021000000000000000000000000000000000000000000000000000000000000000000000000021000000000000000000000000000000000000000000000000000000000000000000000000000000004   000000000000000000000000000000000000000000
10000000006 000100003585000035850008030675245815MUNICIPALIDAD DE CONCEPCION   00000000044000000000000000000000000000036363600000000007636400000000000000000000000000000000000000000000000000000000000000000000000000000000000000000000000000000000004   000000000000000000000000000000000000000000
10000000006 000100003586000035860008030675245815MUNICIPALIDAD DE CONCEPCION   00000000035000000000000000000000000000000000000000000000000000000000000000000000000035000000000000000000000000000000000000000000000000000000000000000000000000000000004   000000000000000000000000000000000000000000
10000000006 000100003587000035870008030675245815MUNICIPALIDAD DE CONCEPCION   00000000021000000000000000000000000000000000000000000000000000000000000000000000000021000000000000000000000000000000000000000000000000000000000000000000000000000000004   000000000000000000000000000000000000000000
10000000006 000100003588000035880008030650455521MUNICIPALIDAD DE FAMAILLA     00000000044000000000000000000000000000036363600000000007636400000000000000000000000000000000000000000000000000000000000000000000000000000000000000000000000000000000004   000000000000000000000000000000000000000000
10000000006 000100003589000035890008030650455521MUNICIPALIDAD DE FAMAILLA     00000000035000000000000000000000000000000000000000000000000000000000000000000000000035000000000000000000000000000000000000000000000000000000000000000000000000000000004   000000000000000000000000000000000000000000
10000000006 000100003590000035900008030650455521MUNICIPALIDAD DE FAMAILLA     00000000021000000000000000000000000000000000000000000000000000000000000000000000000021000000000000000000000000000000000000000000000000000000000000000000000000000000004   000000000000000000000000000000000000000000
10000000006 000100003591000035910008030639652382MUNICIPALIDAD DE JUAN B. ALBER00000000044000000000000000000000000000036363600000000007636400000000000000000000000000000000000000000000000000000000000000000000000000000000000000000000000000000000004   000000000000000000000000000000000000000000
10000000006 000100003592000035920008030639652382MUNICIPALIDAD DE JUAN B. ALBER00000000035000000000000000000000000000000000000000000000000000000000000000000000000035000000000000000000000000000000000000000000000000000000000000000000000000000000004   000000000000000000000000000000000000000000
10000000006 000100003593000035930008030639652382MUNICIPALIDAD DE JUAN B. ALBER00000000021000000000000000000000000000000000000000000000000000000000000000000000000021000000000000000000000000000000000000000000000000000000000000000000000000000000004   000000000000000000000000000000000000000000
10000000006 000100003594000035940008030656291652MUNICIPALIDAD DE MONTEROS     00000000044000000000000000000000000000036363600000000007636400000000000000000000000000000000000000000000000000000000000000000000000000000000000000000000000000000000004   000000000000000000000000000000000000000000
10000000006 000100003595000035950008030656291652MUNICIPALIDAD DE MONTEROS     00000000021000000000000000000000000000000000000000000000000000000000000000000000000021000000000000000000000000000000000000000000000000000000000000000000000000000000004   000000000000000000000000000000000000000000
10000000006 000100003596000035960009900000000000                              00000000000000000000000000000000000000000000000000000000000000000000000000000000000000000000000000000000000000000000000000000000000000000000000000000000000000000000007   000000000000000000000000000000000000000000
10000000006 000100003597000035970009900000000000                              00000000000000000000000000000000000000000000000000000000000000000000000000000000000000000000000000000000000000000000000000000000000000000000000000000000000000000000007   000000000000000000000000000000000000000000
10000000006 000100003598000035980009900000000000                              00000000000000000000000000000000000000000000000000000000000000000000000000000000000000000000000000000000000000000000000000000000000000000000000000000000000000000000007   000000000000000000000000000000000000000000
10000000006 000100003599000035990009900000000000                              00000000000000000000000000000000000000000000000000000000000000000000000000000000000000000000000000000000000000000000000000000000000000000000000000000000000000000000007   000000000000000000000000000000000000000000
10000000006 000100003600000036000009900000000000                              00000000000000000000000000000000000000000000000000000000000000000000000000000000000000000000000000000000000000000000000000000000000000000000000000000000000000000000007   000000000000000000000000000000000000000000
10000000006 000100003601000036010009900000000000                              00000000000000000000000000000000000000000000000000000000000000000000000000000000000000000000000000000000000000000000000000000000000000000000000000000000000000000000007   000000000000000000000000000000000000000000
10000000006 000100003602000036020009900000000000                              00000000000000000000000000000000000000000000000000000000000000000000000000000000000000000000000000000000000000000000000000000000000000000000000000000000000000000000007   000000000000000000000000000000000000000000
10000000006 000100003603000036030009900000000000                              00000000000000000000000000000000000000000000000000000000000000000000000000000000000000000000000000000000000000000000000000000000000000000000000000000000000000000000007   000000000000000000000000000000000000000000
10000000006 000100003604000036040008030675426798MUNICIPALIDAD DE TAFI DEL VALL00000000044000000000000000000000000000036363600000000007636400000000000000000000000000000000000000000000000000000000000000000000000000000000000000000000000000000000004   000000000000000000000000000000000000000000
10000000006 000100003605000036050008030675426798MUNICIPALIDAD DE TAFI DEL VALL00000000035000000000000000000000000000000000000000000000000000000000000000000000000035000000000000000000000000000000000000000000000000000000000000000000000000000000004   000000000000000000000000000000000000000000
10000000006 000100003606000036060008030675426798MUNICIPALIDAD DE TAFI DEL VALL00000000021000000000000000000000000000000000000000000000000000000000000000000000000021000000000000000000000000000000000000000000000000000000000000000000000000000000004   000000000000000000000000000000000000000000
10000000006 000100003607000036070008030679935697MUNICIPALIDAD DE YERBA BUENA  00000000044000000000000000000000000000036363600000000007636400000000000000000000000000000000000000000000000000000000000000000000000000000000000000000000000000000000004   000000000000000000000000000000000000000000
10000000006 000100003608000036080008030679935697MUNICIPALIDAD DE YERBA BUENA  00000000035000000000000000000000000000000000000000000000000000000000000000000000000035000000000000000000000000000000000000000000000000000000000000000000000000000000004   000000000000000000000000000000000000000000
10000000006 000100003609000036090008030679935697MUNICIPALIDAD DE YERBA BUENA  00000000021000000000000000000000000000000000000000000000000000000000000000000000000021000000000000000000000000000000000000000000000000000000000000000000000000000000004   000000000000000000000000000000000000000000
10000000006 000100003610000036100008030656291652MUNICIPALIDAD DE MONTEROS     00000000035000000000000000000000000000000000000000000000000000000000000000000000000035000000000000000000000000000000000000000000000000000000000000000000000000000000004   000000000000000000000000000000000000000000
10000000006 000100003611000036110008030546670240UNIVERSIDAD NACIONAL DE TUCUMA00000000008000000000000000000000000000000000000000000000000000000000000000000000000008000000000000000000000000000000000000000000000000000000000000000000000000000000004   000000000000000000000000000000000000000000
10000000006 000100003612000036120008030655342946MUNIC. DE SAN MIGUEL DE TUCUMA00000000220000000000000000000000000000181818200000000038181800000000000000000000000000000000000000000000000000000000000000000000000000000000000000000000000000000000004   000000000000000000000000000000000000000000
10000000006 000100003613000036130008030655342946MUNIC. DE SAN MIGUEL DE TUCUMA00000000150000000000000000000000000000000000000000000000000000000000000000000000000150000000000000000000000000000000000000000000000000000000000000000000000000000000004   000000000000000000000000000000000000000000
10000000006 000100003614000036140008030655342946MUNIC. DE SAN MIGUEL DE TUCUMA00000000067000000000000000000000000000000000000000000000000000000000000000000000000067000000000000000000000000000000000000000000000000000000000000000000000000000000004   000000000000000000000000000000000000000000
10000000006 000100003615000036150008030633949227INSTITUTO DE PREVISION Y SEG S00000000033600000000000000000000000000027768600000000005831400000000000000000000000000000000000000000000000000000000000000000000000000000000000000000000000000000000004   000000000000000000000000000000000000000000
10000000006 000100003616000036160008030633949227INSTITUTO DE PREVISION Y SEG S00000000022000000000000000000000000000000000000000000000000000000000000000000000000022000000000000000000000000000000000000000000000000000000000000000000000000000000004   000000000000000000000000000000000000000000
10000000006 000100003617000036170008030633949227INSTITUTO DE PREVISION Y SEG S00000000010000000000000000000000000000000000000000000000000000000000000000000000000010000000000000000000000000000000000000000000000000000000000000000000000000000000004   000000000000000000000000000000000000000000
10000000006 000100003618000036180008030638254286INST.PROV. VIVIENDA Y DES. URB00000000050000000000000000000000000000041322300000000008677700000000000000000000000000000000000000000000000000000000000000000000000000000000000000000000000000000000004   000000000000000000000000000000000000000000
10000000006 000100003619000036190008020144804601JORGE ALEJANDRO HERRERA       00000000003000000000000000000000000000002479300000000000520700000000000000000000000000000000000000000000000000000000000000000000000000000000000000000000000000000000006   000000000000000000000000000000000000000000
10000000006 000100003620000036200008027245842525GRAMAJO DE CARAM SILVINA MARIA00000000002500000000000000000000000000000000000000000000000000000000000000000000000002500000000000000000000000000000000000000000000000000000000000000000000000000000006   000000000000000000000000000000000000000000
10000000006 000100003621000036210008027255715092SZACHNIUK NATALIA             00000000008640000000000000000000000000000000000000000000000000000000000000000000000008640000000000000000000000000000000000000000000000000000000000000000000000000000006   000000000000000000000000000000000000000000
10000000006 000100003622000036220008027245842525GRAMAJO DE CARAM SILVINA MARIA00000000002000000000000000000000000000000000000000000000000000000000000000000000000002000000000000000000000000000000000000000000000000000000000000000000000000000000006   000000000000000000000000000000000000000000
10000000006 000100003623000036230008020083285355RPM PRODUCCIONES              00000000007000000000000000000000000000005785100000000001214900000000000000000000000000000000000000000000000000000000000000000000000000000000000000000000000000000000006   000000000000000000000000000000000000000000
10000000006 000100003624000036240008020083285355RPM PRODUCCIONES              00000000005500000000000000000000000000004545500000000000954500000000000000000000000000000000000000000000000000000000000000000000000000000000000000000000000000000000006   000000000000000000000000000000000000000000
10000000006 000100003625000036250008020083285355RPM PRODUCCIONES              00000000033323400000000000000000000000027540000000000005783400000000000000000000000000000000000000000000000000000000000000000000000000000000000000000000000000000000006   000000000000000000000000000000000000000000
10000000006 000100003626000036260008020083285355RPM PRODUCCIONES              00000000004000000000000000000000000000003305800000000000694200000000000000000000000000000000000000000000000000000000000000000000000000000000000000000000000000000000006   000000000000000000000000000000000000000000
10000000006 000100003627000036270008027059975280CISTERNA MARIA CRISTINA       00000000035366600000000000000000000000029228600000000006138000000000000000000000000000000000000000000000000000000000000000000000000000000000000000000000000000000000006   000000000000000000000000000000000000000000
10000000006 000100003628000036280008020173730269YOVANOVICH DANIEL ANGEL PEDRO 00000000012000000000000000000000000000000000000000000000000000000000000000000000000012000000000000000000000000000000000000000000000000000000000000000000000000000000006   000000000000000000000000000000000000000000
10000000006 000100003629000036290008030685681737MUNICIPALIDAD DE LULES        00000000030000000000000000000000000000000000000000000000000000000000000000000000000030000000000000000000000000000000000000000000000000000000000000000000000000000000004   000000000000000000000000000000000000000000
10000000006 000100003630000036300008027277998624RINALDI ROSALIN ESTHER        00000000004840000000000000000000000000004000000000000000840000000000000000000000000000000000000000000000000000000000000000000000000000000000000000000000000000000000006   000000000000000000000000000000000000000000
10000000006 000100003631000036310008020124497419CORDOBA CARLOS ALFREDO        00000000004840000000000000000000000000004000000000000000840000000000000000000000000000000000000000000000000000000000000000000000000000000000000000000000000000000000006   000000000000000000000000000000000000000000
10000000006 000100003632000036320008030546670240UNIVERSIDAD NACIONAL DE TUCUMA00000000018150000000000000000000000000015000000000000003150000000000000000000000000000000000000000000000000000000000000000000000000000000000000000000000000000000000004   000000000000000000000000000000000000000000
10000000006 000100003633000036330008020146611584MOLINA JOSE OMAR              00000000005000000000000000000000000000000000000000000000000000000000000000000000000005000000000000000000000000000000000000000000000000000000000000000000000000000000006   000000000000000000000000000000000000000000
10000000006 000100003634000036340008030546670240UNIVERSIDAD NACIONAL DE TUCUMA00000000005000000000000000000000000000000000000000000000000000000000000000000000000005000000000000000000000000000000000000000000000000000000000000000000000000000000004   000000000000000000000000000000000000000000
10000000006 000100003635000036350008027226128013LIZARRAGA CLAUDIA DEL PILAR   00000000008000000000000000000000000000000000000000000000000000000000000000000000000008000000000000000000000000000000000000000000000000000000000000000000000000000000006   000000000000000000000000000000000000000000
10000000006 000100003636000036360008020252554018PEREZ GUSTAVO ARIEL           00000000010000000000000000000000000000000000000000000000000000000000000000000000000010000000000000000000000000000000000000000000000000000000000000000000000000000000006   000000000000000000000000000000000000000000
10000000006 000100003637000036370008020208892097ALVAREZ FERNANDO JOSE         00000000020000000000000000000000000000000000000000000000000000000000000000000000000020000000000000000000000000000000000000000000000000000000000000000000000000000000006   000000000000000000000000000000000000000000
