"10000000001 000100007002000070020008033637287279VICTOR JAIME LAROZ E HIJOS S.H00000000015157000000000000000000000000000000000000000000000000000000000000000000000015157000000000000000000000000000000000000000000000000000000000000000000000000000001   000000000000000000000000000000000000000000
10000000001 000100007003000070030008020224964936MAZZA GUILLERMO RUBEN         00000000015000000000000000000000000000000000000000000000000000000000000000000000000015000000000000000000000000000000000000000000000000000000000000000000000000000000001   000000000000000000000000000000000000000000
10000000001 000100007004000070040008020224964936MAZZA GUILLERMO RUBEN         00000000010000000000000000000000000000000000000000000000000000000000000000000000000010000000000000000000000000000000000000000000000000000000000000000000000000000000001   000000000000000000000000000000000000000000
10000000001 000100007005000070050008030708685646DAHAM LUNCH Y CATERING S.R.L. 00000000004000000000000000000000000000000000000000000000000000000000000000000000000004000000000000000000000000000000000000000000000000000000000000000000000000000000001   000000000000000000000000000000000000000000
10000000001 000100007006000070060008030708685646DAHAM LUNCH Y CATERING S.R.L. 00000000004000000000000000000000000000000000000000000000000000000000000000000000000004000000000000000000000000000000000000000000000000000000000000000000000000000000001   000000000000000000000000000000000000000000
10000000001 000100007007000070070008030708685646DAHAM LUNCH Y CATERING S.R.L. 00000000004000000000000000000000000000000000000000000000000000000000000000000000000004000000000000000000000000000000000000000000000000000000000000000000000000000000001   000000000000000000000000000000000000000000
10000000001 000100007008000070080008030708685646DAHAM LUNCH Y CATERING S.R.L. 00000000004000000000000000000000000000000000000000000000000000000000000000000000000004000000000000000000000000000000000000000000000000000000000000000000000000000000001   000000000000000000000000000000000000000000
10000000001 000100007009000070090008030708685646DAHAM LUNCH Y CATERING S.R.L. 00000000004000000000000000000000000000000000000000000000000000000000000000000000000004000000000000000000000000000000000000000000000000000000000000000000000000000000001   000000000000000000000000000000000000000000
10000000001 000100007010000070100008030708685646DAHAM LUNCH Y CATERING S.R.L. 00000000004000000000000000000000000000000000000000000000000000000000000000000000000004000000000000000000000000000000000000000000000000000000000000000000000000000000001   000000000000000000000000000000000000000000
10000000001 000100007011000070110008030708899859ALBORNOZ Y GOMEZ S.R.L.       00000000049244600000000000000000000000040698000000000008546600000000000000000000000000000000000000000000000000000000000000000000000000000000000000000000000000000000001   000000000000000000000000000000000000000000
10000000001 000100007012000070120008030525966859RIBEIRO S.A.C.I.F.A.EI.       00000000011800000000000000000000000000000000000000000000000000000000000000000000000011800000000000000000000000000000000000000000000000000000000000000000000000000000001   000000000000000000000000000000000000000000
10000000001 000100007013000070130008030708899859ALBORNOZ Y GOMEZ S.R.L.       00000000003630000000000000000000000000003000000000000000630000000000000000000000000000000000000000000000000000000000000000000000000000000000000000000000000000000000001   000000000000000000000000000000000000000000
10000000001 000100007018000070180008030710425112BERNINI MEDIOS S.A.           00000000082911100000000000000000000000068521600000000014389500000000000000000000000000000000000000000000000000000000000000000000000000000000000000000000000000000000001   000000000000000000000000000000000000000000
10000000001 000100007019000070190008030710425112BERNINI MEDIOS S.A.           00000000057753300000000000000000000000047730000000000010023300000000000000000000000000000000000000000000000000000000000000000000000000000000000000000000000000000000001   000000000000000000000000000000000000000000
10000000001 000100007020000070200008030710425112BERNINI MEDIOS S.A.           00000000030458100000000000000000000000025172000000000005286100000000000000000000000000000000000000000000000000000000000000000000000000000000000000000000000000000000001   000000000000000000000000000000000000000000
10000000001 000100007021000070210008030710425112BERNINI MEDIOS S.A.           00000000051143800000000000000000000000042267600000000008876200000000000000000000000000000000000000000000000000000000000000000000000000000000000000000000000000000000001   000000000000000000000000000000000000000000
10000000001 000100007022000070220008030692138674MEDIAMAX S.A.                 00000000009438000000000000000000000000007800000000000001638000000000000000000000000000000000000000000000000000000000000000000000000000000000000000000000000000000000001   000000000000000000000000000000000000000000
10000000001 000100007023000070230008030686148692COLANERI REPRESENTACIONES INTE00000000003267000000000000000000000000002700000000000000567000000000000000000000000000000000000000000000000000000000000000000000000000000000000000000000000000000000001   000000000000000000000000000000000000000000
10000000001 000100007024000070240008030710425112BERNINI MEDIOS S.A.           00000000031145400000000000000000000000025740000000000005405400000000000000000000000000000000000000000000000000000000000000000000000000000000000000000000000000000000001   000000000000000000000000000000000000000000
10000000001 000100007025000070250008030710425112BERNINI MEDIOS S.A.           00000000014848000000000000000000000000000000000000000000000000000000000000000000000014848000000000000000000000000000000000000000000000000000000000000000000000000000001   000000000000000000000000000000000000000000
10000000001 000100007026000070260008030710425112BERNINI MEDIOS S.A.           00000000071874000000000000000000000000059400000000000012474000000000000000000000000000000000000000000000000000000000000000000000000000000000000000000000000000000000001   000000000000000000000000000000000000000000
10000000001 000100007027000070270008030710425112BERNINI MEDIOS S.A.           00000000067489000000000000000000000000055776000000000011713000000000000000000000000000000000000000000000000000000000000000000000000000000000000000000000000000000000001   000000000000000000000000000000000000000000
10000000001 000100007028000070280008030710425112BERNINI MEDIOS S.A.           00000000027732800000000000000000000000000000000000000000000000000000000000000000000027732800000000000000000000000000000000000000000000000000000000000000000000000000001   000000000000000000000000000000000000000000
10000000001 000100007029000070290008033520545749SMITH S.A.                    00000000011325600000000000000000000000009360000000000001965600000000000000000000000000000000000000000000000000000000000000000000000000000000000000000000000000000000001   000000000000000000000000000000000000000000
10000000001 000100007030000070300008033520545749SMITH S.A.                    00000000005379700000000000000000000000004446000000000000933700000000000000000000000000000000000000000000000000000000000000000000000000000000000000000000000000000000001   000000000000000000000000000000000000000000
10000000001 000100007031000070310008033520545749SMITH S.A.                    00000000006040300000000000000000000000004992000000000001048300000000000000000000000000000000000000000000000000000000000000000000000000000000000000000000000000000000001   000000000000000000000000000000000000000000
10000000001 000100007032000070320008033520545749SMITH S.A.                    00000000010067200000000000000000000000008320000000000001747200000000000000000000000000000000000000000000000000000000000000000000000000000000000000000000000000000000001   000000000000000000000000000000000000000000
10000000001 000100007033000070330008030710096267INTERFACE GROUP S.A.          00000000027370000000000000000000000000000000000000000000000000000000000000000000000027370000000000000000000000000000000000000000000000000000000000000000000000000000001   000000000000000000000000000000000000000000
10000000001 000100007034000070340008033520545749SMITH S.A.                    00000000011954800000000000000000000000009880000000000002074800000000000000000000000000000000000000000000000000000000000000000000000000000000000000000000000000000000001   000000000000000000000000000000000000000000
10000000001 000100007035000070350008033508358259CERVECERIA Y MALT. QUILMES SAI00000000006636000000000000000000000000000000000000000000000000000000000000000000000006636000000000000000000000000000000000000000000000000000000000000000000000000000001   000000000000000000000000000000000000000000
10000000001 000100007036000070360008033508358259CERVECERIA Y MALT. QUILMES SAI00000000005670000000000000000000000000000000000000000000000000000000000000000000000005670000000000000000000000000000000000000000000000000000000000000000000000000000001   000000000000000000000000000000000000000000
10000000001 000100007037000070370008033508358259CERVECERIA Y MALT. QUILMES SAI00000000008214500000000000000000000000000000000000000000000000000000000000000000000008214500000000000000000000000000000000000000000000000000000000000000000000000000001   000000000000000000000000000000000000000000
10000000001 000100007038000070380008033508358259CERVECERIA Y MALT. QUILMES SAI00000000004095000000000000000000000000000000000000000000000000000000000000000000000004095000000000000000000000000000000000000000000000000000000000000000000000000000001   000000000000000000000000000000000000000000
10000000001 000100007039000070390008020126743212TALE LUIS ROBERTO             00000000001444000000000000000000000000001193400000000000250600000000000000000000000000000000000000000000000000000000000000000000000000000000000000000000000000000000001   000000000000000000000000000000000000000000
10000000001 000100007040000070400008030643087193MIPOL REPUESTOS S.A.          00000000005808000000000000000000000000004800000000000001008000000000000000000000000000000000000000000000000000000000000000000000000000000000000000000000000000000000001   000000000000000000000000000000000000000000
10000000001 000100007041000070410008027172683636LOMBARDO SILVIA BEATRIZ       00000000004840000000000000000000000000004000000000000000840000000000000000000000000000000000000000000000000000000000000000000000000000000000000000000000000000000000001   000000000000000000000000000000000000000000
10000000001 000100007042000070420008030607148712MEDIOS & COMUNICACION         00000000005245400000000000000000000000004335000000000000910400000000000000000000000000000000000000000000000000000000000000000000000000000000000000000000000000000000001   000000000000000000000000000000000000000000
10000000001 000100007043000070430008030507743176ERNESTO VIDAL Y CIA SACIFI    00000000004840000000000000000000000000004000000000000000840000000000000000000000000000000000000000000000000000000000000000000000000000000000000000000000000000000000001   000000000000000000000000000000000000000000
10000000001 000100007044000070440008027066759364POROLLI NORMA SILVIA          00000000004840000000000000000000000000004000000000000000840000000000000000000000000000000000000000000000000000000000000000000000000000000000000000000000000000000000001   000000000000000000000000000000000000000000
10000000001 000100007045000070450008030708685646DAHAM LUNCH Y CATERING S.R.L. 00000000004000000000000000000000000000000000000000000000000000000000000000000000000004000000000000000000000000000000000000000000000000000000000000000000000000000000001   000000000000000000000000000000000000000000
10000000001 000100007046000070460008020259224706DEIANA CRISTIAN HERNAN        00000000002640000000000000000000000000000000000000000000000000000000000000000000000002640000000000000000000000000000000000000000000000000000000000000000000000000000001   000000000000000000000000000000000000000000
10000000001 000100007047000070470008033637287279VICTOR JAIME LAROZ E HIJOS S.H00000000002240000000000000000000000000000000000000000000000000000000000000000000000002240000000000000000000000000000000000000000000000000000000000000000000000000000001   000000000000000000000000000000000000000000
10000000001 000100007048000070480008020217452520IDIGORAS EDUARDO ENRIQUE      00000000005000000000000000000000000000000000000000000000000000000000000000000000000005000000000000000000000000000000000000000000000000000000000000000000000000000000001   000000000000000000000000000000000000000000
10000000001 000100007049000070490008020217450161ARIAS PABLO FELIX             00000000006000000000000000000000000000000000000000000000000000000000000000000000000006000000000000000000000000000000000000000000000000000000000000000000000000000000001   000000000000000000000000000000000000000000
10000000001 000100007050000070500008020230157872KERMES JULIO CESAR MIGUEL     00000000005000000000000000000000000000000000000000000000000000000000000000000000000005000000000000000000000000000000000000000000000000000000000000000000000000000000001   000000000000000000000000000000000000000000
10000000001 000100007051000070510008020129782979ROQUE ALBERTO REYNA           00000000012750000000000000000000000000000000000000000000000000000000000000000000000012750000000000000000000000000000000000000000000000000000000000000000000000000000001   000000000000000000000000000000000000000000
10000000001 000100007052000070520008030501924411ESTABLECIMIENTOS LA MARIPOSA  00000000003630000000000000000000000000003000000000000000630000000000000000000000000000000000000000000000000000000000000000000000000000000000000000000000000000000000001   000000000000000000000000000000000000000000
10000000001 000100007053000070530008030660773696ASPEN S.R.L.                  00000000013000000000000000000000000000000000000000000000000000000000000000000000000013000000000000000000000000000000000000000000000000000000000000000000000000000000001   000000000000000000000000000000000000000000
10000000001 000100007054000070540008030708617888SOCIEDAD AGUAS DEL TUCUMAN    00000000030250000000000000000000000000025000000000000005250000000000000000000000000000000000000000000000000000000000000000000000000000000000000000000000000000000000001   000000000000000000000000000000000000000000
10000000001 000100007055000070550008030708772964JUMBO RETAIL ARGENTINA S.A.   00000000018150000000000000000000000000015000000000000003150000000000000000000000000000000000000000000000000000000000000000000000000000000000000000000000000000000000001   000000000000000000000000000000000000000000
10000000001 000100007056000070560008030621342203MARCANTONIO DEPORTES S.R.L.   00000000008000000000000000000000000000006611600000000001388400000000000000000000000000000000000000000000000000000000000000000000000000000000000000000000000000000000001   000000000000000000000000000000000000000000
10000000001 000100007057000070570008030634595623FEDERACION DE COOP. VITIVINICO00000000039930000000000000000000000000033000000000000006930000000000000000000000000000000000000000000000000000000000000000000000000000000000000000000000000000000000001   000000000000000000000000000000000000000000
10000000001 000100007058000070580008020213282167ALBERTUS DANIEL OMAR          00000000019800000000000000000000000000016363600000000003436400000000000000000000000000000000000000000000000000000000000000000000000000000000000000000000000000000000001   000000000000000000000000000000000000000000
10000000001 000100007059000070590008030680001096LLANOS CRESPO S.H.            00000000004500000000000000000000000000000000000000000000000000000000000000000000000004500000000000000000000000000000000000000000000000000000000000000000000000000000001   000000000000000000000000000000000000000000
10000000001 000100007060000070600008030525966859RIBEIRO S.A.C.I.F.A.EI.       00000000027830000000000000000000000000023000000000000004830000000000000000000000000000000000000000000000000000000000000000000000000000000000000000000000000000000000001   000000000000000000000000000000000000000000
10000000001 000100007061000070610008030525966859RIBEIRO S.A.C.I.F.A.EI.       00000000015000000000000000000000000000000000000000000000000000000000000000000000000015000000000000000000000000000000000000000000000000000000000000000000000000000000001   000000000000000000000000000000000000000000
10000000001 000100007062000070620008030525966859RIBEIRO S.A.C.I.F.A.EI.       00000000012400000000000000000000000000000000000000000000000000000000000000000000000012400000000000000000000000000000000000000000000000000000000000000000000000000000001   000000000000000000000000000000000000000000
10000000001 000100007063000070630008030634595623FEDERACION DE COOP. VITIVINICO00000000008470000000000000000000000000007000000000000001470000000000000000000000000000000000000000000000000000000000000000000000000000000000000000000000000000000000001   000000000000000000000000000000000000000000
10000000001 000100007064000070640008030646154223COMPAÑIA TUCUMANA DE REFRESCOS00000000008470000000000000000000000000007000000000000001470000000000000000000000000000000000000000000000000000000000000000000000000000000000000000000000000000000000001   000000000000000000000000000000000000000000
10000000001 000100007065000070650008033707429289PETROLTUC S.R.L.              00000000005000000000000000000000000000000000000000000000000000000000000000000000000005000000000000000000000000000000000000000000000000000000000000000000000000000000001   000000000000000000000000000000000000000000
10000000001 000100007066000070660008030708069449MONTANARO Y CIA S.R.L.        00000000005000000000000000000000000000000000000000000000000000000000000000000000000005000000000000000000000000000000000000000000000000000000000000000000000000000000001   000000000000000000000000000000000000000000
10000000001 000100007067000070670008030691789841BULONERIA REGINATO SRL        00000000004840000000000000000000000000004000000000000000840000000000000000000000000000000000000000000000000000000000000000000000000000000000000000000000000000000000001   000000000000000000000000000000000000000000
10000000001 000100007068000070680008030543749024BOLLINI S.A.                  00000000004840000000000000000000000000004000000000000000840000000000000000000000000000000000000000000000000000000000000000000000000000000000000000000000000000000000001   000000000000000000000000000000000000000000
10000000001 000100007069000070690008030707004416PUERTAS SRL                   00000000004840000000000000000000000000004000000000000000840000000000000000000000000000000000000000000000000000000000000000000000000000000000000000000000000000000000001   000000000000000000000000000000000000000000
10000000001 000100007070000070700008030710121342VIRTUALNOA. COM S.R.L.        00000000006000000000000000000000000000000000000000000000000000000000000000000000000006000000000000000000000000000000000000000000000000000000000000000000000000000000001   000000000000000000000000000000000000000000
10000000001 000100007071000070710008030709361224GRAN HOTEL DEL PARQUE S.A.    00000000008000000000000000000000000000000000000000000000000000000000000000000000000008000000000000000000000000000000000000000000000000000000000000000000000000000000001   000000000000000000000000000000000000000000
10000000001 000100007072000070720008030691782502LEON ALPEROVICH DE TUCUMAN S.A00000000012100000000000000000000000000010000000000000002100000000000000000000000000000000000000000000000000000000000000000000000000000000000000000000000000000000000001   000000000000000000000000000000000000000000
10000000001 000100007073000070730008020224964936MAZZA GUILLERMO RUBEN         00000000015000000000000000000000000000000000000000000000000000000000000000000000000015000000000000000000000000000000000000000000000000000000000000000000000000000000001   000000000000000000000000000000000000000000
10000000001 000100007074000070740008030707761896COBERTURA DE SALUD S.A.       00000000020570000000000000000000000000017000000000000003570000000000000000000000000000000000000000000000000000000000000000000000000000000000000000000000000000000000001   000000000000000000000000000000000000000000
10000000001 000100007075000070750008033601254609CYCOMAT S.R.L.                00000000015000000000000000000000000000000000000000000000000000000000000000000000000015000000000000000000000000000000000000000000000000000000000000000000000000000000001   000000000000000000000000000000000000000000
10000000001 000100007076000070760008030691782502LEON ALPEROVICH DE TUCUMAN S.A00000000003630000000000000000000000000003000000000000000630000000000000000000000000000000000000000000000000000000000000000000000000000000000000000000000000000000000001   000000000000000000000000000000000000000000
10000000001 000100007077000070770008033710455819HUDAWA S.R.L.                 00000000012000000000000000000000000000000000000000000000000000000000000000000000000012000000000000000000000000000000000000000000000000000000000000000000000000000000001   000000000000000000000000000000000000000000
10000000001 000100007078000070780008030516625968BERCOVICH S.A.C.I.F.I.A.      00000000006425100000000000000000000000005310000000000001115100000000000000000000000000000000000000000000000000000000000000000000000000000000000000000000000000000000001   000000000000000000000000000000000000000000
10000000001 000100007079000070790008030516625968BERCOVICH S.A.C.I.F.I.A.      00000000006050000000000000000000000000005000000000000001050000000000000000000000000000000000000000000000000000000000000000000000000000000000000000000000000000000000001   000000000000000000000000000000000000000000
10000000001 000100007080000070800008030691789841BULONERIA REGINATO SRL        00000000009680000000000000000000000000008000000000000001680000000000000000000000000000000000000000000000000000000000000000000000000000000000000000000000000000000000001   000000000000000000000000000000000000000000
10000000001 000100007081000070810008030643087193MIPOL REPUESTOS S.A.          00000000015125000000000000000000000000012500000000000002625000000000000000000000000000000000000000000000000000000000000000000000000000000000000000000000000000000000001   000000000000000000000000000000000000000000
10000000001 000100007082000070820008030623893096YUHMAK S.A.                   00000000011495000000000000000000000000009500000000000001995000000000000000000000000000000000000000000000000000000000000000000000000000000000000000000000000000000000001   000000000000000000000000000000000000000000
10000000001 000100007083000070830008030518314714REFRIGERACION NORTE S.R.L.    00000000011495000000000000000000000000009500000000000001995000000000000000000000000000000000000000000000000000000000000000000000000000000000000000000000000000000000001   000000000000000000000000000000000000000000
10000000001 000100007084000070840008030691782502LEON ALPEROVICH DE TUCUMAN S.A00000000015125000000000000000000000000012500000000000002625000000000000000000000000000000000000000000000000000000000000000000000000000000000000000000000000000000000001   000000000000000000000000000000000000000000
10000000001 000100007085000070850008027129188729MARTORELL LILIANA FRANCISCA   00000000006000000000000000000000000000000000000000000000000000000000000000000000000006000000000000000000000000000000000000000000000000000000000000000000000000000000001   000000000000000000000000000000000000000000
10000000001 000100007086000070860008033700884479CENTRO DE ELAB. DE REFRESCOS S00000000012100000000000000000000000000010000000000000002100000000000000000000000000000000000000000000000000000000000000000000000000000000000000000000000000000000000001   000000000000000000000000000000000000000000
10000000001 000100007087000070870008030708379286TARJETA PLATINO S.A.          00000000014520000000000000000000000000012000000000000002520000000000000000000000000000000000000000000000000000000000000000000000000000000000000000000000000000000000001   000000000000000000000000000000000000000000
10000000001 000100007088000070880008030708379286TARJETA PLATINO S.A.          00000000008000000000000000000000000000000000000000000000000000000000000000000000000008000000000000000000000000000000000000000000000000000000000000000000000000000000001   000000000000000000000000000000000000000000
10000000001 000100007089000070890008030540088213GARBARINO S.A.                00000000024200000000000000000000000000020000000000000004200000000000000000000000000000000000000000000000000000000000000000000000000000000000000000000000000000000000001   000000000000000000000000000000000000000000
10000000001 000100007090000070900008020085799194EMILIO SALVADOR LUQUE         00000000025001900000000000000000000000012396700000000002603300000000000000000000000010001900000000000000000000000000000000000000000000000000000000000000000000000000001   000000000000000000000000000000000000000000
10000000001 000100007091000070910008030517948205BANCO DEL TUCUMAN S.A.        00000000046389500000000000000000000000030107000000000006322500000000000000000000000009960000000000000000000000000000000000000000000000000000000000000000000000000000001   000000000000000000000000000000000000000000
10000000001 000100007092000070920008020259224706DEIANA CRISTIAN HERNAN        00000000038833200000000000000000000000000000000000000000000000000000000000000000000038833200000000000000000000000000000000000000000000000000000000000000000000000000001   000000000000000000000000000000000000000000
10000000001 000100007093000070930008020055213896DEL SANCIO PRODUCCIONES       00000000015000000000000000000000000000000000000000000000000000000000000000000000000015000000000000000000000000000000000000000000000000000000000000000000000000000000001   000000000000000000000000000000000000000000
10000000001 000100007094000070940008020134743140LOPEZ DANIEL ANTONIO          00000000005000000000000000000000000000000000000000000000000000000000000000000000000005000000000000000000000000000000000000000000000000000000000000000000000000000000001   000000000000000000000000000000000000000000
10000000001 000100007095000070950008030546481553RIO PARANA SOCIEDAD ANONIMA   00000000018150000000000000000000000000015000000000000003150000000000000000000000000000000000000000000000000000000000000000000000000000000000000000000000000000000000001   000000000000000000000000000000000000000000
10000000001 000100007096000070960008030643087193MIPOL REPUESTOS S.A.          00000000009680000000000000000000000000000000000000000000000000000000000000000000000009680000000000000000000000000000000000000000000000000000000000000000000000000000001   000000000000000000000000000000000000000000
10000000001 000100007097000070970008030708133473LA REVANCHA S.R.L.            00000000005000000000000000000000000000000000000000000000000000000000000000000000000005000000000000000000000000000000000000000000000000000000000000000000000000000000001   000000000000000000000000000000000000000000
10000000001 000100007098000070980008020224964936MAZZA GUILLERMO RUBEN         00000000010000000000000000000000000000000000000000000000000000000000000000000000000010000000000000000000000000000000000000000000000000000000000000000000000000000000001   000000000000000000000000000000000000000000
10000000001 000100007099000070990008020217452466GOMERIA UNIVERSAL S.A.        00000000012100000000000000000000000000000000000000000000000000000000000000000000000012100000000000000000000000000000000000000000000000000000000000000000000000000000001   000000000000000000000000000000000000000000
10000000001 000100007100000071000008030709251739ANDES LINEAS AEREAS S.A.      00000000033060000000000000000000000000027322300000000005737700000000000000000000000000000000000000000000000000000000000000000000000000000000000000000000000000000000001   000000000000000000000000000000000000000000
10000000001 000100007101000071010008030710174357VIEJO CAMINO AL PERU S.R.L.   00000000008000000000000000000000000000000000000000000000000000000000000000000000000008000000000000000000000000000000000000000000000000000000000000000000000000000000001   000000000000000000000000000000000000000000
10000000001 000100007102000071020008033518855609RIMAR ALCOHOLES S.R.L.        00000000006000000000000000000000000000000000000000000000000000000000000000000000000006000000000000000000000000000000000000000000000000000000000000000000000000000000001   000000000000000000000000000000000000000000
10000000003 000100007014000070140008030708685646DAHAM LUNCH Y CATERING S.R.L. 00000000029040000000000000000000000000024000000000000005040000000000000000000000000000000000000000000000000000000000000000000000000000000000000000000000000000000000001   000000000000000000000000000000000000000000
10000000003 000100007015000070150008033702400169M & A REPRESENTACIONES SRL    00000000006050000000000000000000000000005000000000000001050000000000000000000000000000000000000000000000000000000000000000000000000000000000000000000000000000000000001   000000000000000000000000000000000000000000
10000000003 000100007016000070160008027132586336COITTE ANA MARIA              00000000012100000000000000000000000000010000000000000002100000000000000000000000000000000000000000000000000000000000000000000000000000000000000000000000000000000000001   000000000000000000000000000000000000000000
10000000003 000100007017000070170008030709040509ESTACION EL BAJO S.A.         00000000018450000000000000000000000000000000000000000000000000000000000000000000000018450000000000000000000000000000000000000000000000000000000000000000000000000000001   000000000000000000000000000000000000000000
10000000006 000100003570000035700008030647889065HONORABLE LEGISLATURA DE TUCUM00000000100000000000000000000000000000082644600000000017355400000000000000000000000000000000000000000000000000000000000000000000000000000000000000000000000000000000004   000000000000000000000000000000000000000000
10000000006 000100003571000035710008030647889065HONORABLE LEGISLATURA DE TUCUM00000000070000000000000000000000000000000000000000000000000000000000000000000000000070000000000000000000000000000000000000000000000000000000000000000000000000000000004   000000000000000000000000000000000000000000
10000000006 000100003572000035720008030647889065HONORABLE LEGISLATURA DE TUCUM00000000030000000000000000000000000000000000000000000000000000000000000000000000000030000000000000000000000000000000000000000000000000000000000000000000000000000000004   000000000000000000000000000000000000000000
10000000006 000100003573000035730008030675264194MUNICIPALIDAD BANDA RIO SALI  00000000044000000000000000000000000000036363600000000007636400000000000000000000000000000000000000000000000000000000000000000000000000000000000000000000000000000000004   000000000000000000000000000000000000000000
10000000006 000100003574000035740008030675264194MUNICIPALIDAD BANDA RIO SALI  00000000035000000000000000000000000000000000000000000000000000000000000000000000000035000000000000000000000000000000000000000000000000000000000000000000000000000000004   000000000000000000000000000000000000000000
10000000006 000100003575000035750008030675264194MUNICIPALIDAD BANDA RIO SALI  00000000021000000000000000000000000000000000000000000000000000000000000000000000000021000000000000000000000000000000000000000000000000000000000000000000000000000000004   000000000000000000000000000000000000000000
10000000006 000100003576000035760008030680025254MUNICIPALIDAD DE ALDERETES    00000000044000000000000000000000000000036363600000000007636400000000000000000000000000000000000000000000000000000000000000000000000000000000000000000000000000000000004   000000000000000000000000000000000000000000
10000000006 000100003577000035770008030680025254MUNICIPALIDAD DE ALDERETES    00000000035000000000000000000000000000000000000000000000000000000000000000000000000035000000000000000000000000000000000000000000000000000000000000000000000000000000004   000000000000000000000000000000000000000000
10000000006 000100003578000035780008030680025254MUNICIPALIDAD DE ALDERETES    00000000021000000000000000000000000000000000000000000000000000000000000000000000000021000000000000000000000000000000000000000000000000000000000000000000000000000000004   000000000000000000000000000000000000000000
10000000006 000100003579000035790008030675428081SECRETARIA DE ESTADO DE PRENSA00000000380000000000000000000000000000314049600000000065950400000000000000000000000000000000000000000000000000000000000000000000000000000000000000000000000000000000004   000000000000000000000000000000000000000000
10000000006 000100003580000035800008030675428081SECRETARIA DE ESTADO DE PRENSA00000000310000000000000000000000000000000000000000000000000000000000000000000000000310000000000000000000000000000000000000000000000000000000000000000000000000000000004   000000000000000000000000000000000000000000
10000000006 000100003581000035810008030675428081SECRETARIA DE ESTADO DE PRENSA00000000070000000000000000000000000000000000000000000000000000000000000000000000000070000000000000000000000000000000000000000000000000000000000000000000000000000000004   000000000000000000000000000000000000000000
10000000006 000100003582000035820008030685704397MUNICIPALIDAD DE BELLA VISTA  00000000044000000000000000000000000000036363600000000007636400000000000000000000000000000000000000000000000000000000000000000000000000000000000000000000000000000000004   000000000000000000000000000000000000000000
10000000006 000100003583000035830008030685704397MUNICIPALIDAD DE BELLA VISTA  00000000035000000000000000000000000000000000000000000000000000000000000000000000000035000000000000000000000000000000000000000000000000000000000000000000000000000000004   000000000000000000000000000000000000000000
10000000006 000100003584000035840008030685704397MUNICIPALIDAD DE BELLA VISTA  00000000021000000000000000000000000000000000000000000000000000000000000000000000000021000000000000000000000000000000000000000000000000000000000000000000000000000000004   000000000000000000000000000000000000000000
10000000006 000100003585000035850008030675245815MUNICIPALIDAD DE CONCEPCION   00000000044000000000000000000000000000036363600000000007636400000000000000000000000000000000000000000000000000000000000000000000000000000000000000000000000000000000004   000000000000000000000000000000000000000000
10000000006 000100003586000035860008030675245815MUNICIPALIDAD DE CONCEPCION   00000000035000000000000000000000000000000000000000000000000000000000000000000000000035000000000000000000000000000000000000000000000000000000000000000000000000000000004   000000000000000000000000000000000000000000
10000000006 000100003587000035870008030675245815MUNICIPALIDAD DE CONCEPCION   00000000021000000000000000000000000000000000000000000000000000000000000000000000000021000000000000000000000000000000000000000000000000000000000000000000000000000000004   000000000000000000000000000000000000000000
10000000006 000100003588000035880008030650455521MUNICIPALIDAD DE FAMAILLA     00000000044000000000000000000000000000036363600000000007636400000000000000000000000000000000000000000000000000000000000000000000000000000000000000000000000000000000004   000000000000000000000000000000000000000000
10000000006 000100003589000035890008030650455521MUNICIPALIDAD DE FAMAILLA     00000000035000000000000000000000000000000000000000000000000000000000000000000000000035000000000000000000000000000000000000000000000000000000000000000000000000000000004   000000000000000000000000000000000000000000
10000000006 000100003590000035900008030650455521MUNICIPALIDAD DE FAMAILLA     00000000021000000000000000000000000000000000000000000000000000000000000000000000000021000000000000000000000000000000000000000000000000000000000000000000000000000000004   000000000000000000000000000000000000000000
10000000006 000100003591000035910008030639652382MUNICIPALIDAD DE JUAN B. ALBER00000000044000000000000000000000000000036363600000000007636400000000000000000000000000000000000000000000000000000000000000000000000000000000000000000000000000000000004   000000000000000000000000000000000000000000
10000000006 000100003592000035920008030639652382MUNICIPALIDAD DE JUAN B. ALBER00000000035000000000000000000000000000000000000000000000000000000000000000000000000035000000000000000000000000000000000000000000000000000000000000000000000000000000004   000000000000000000000000000000000000000000
10000000006 000100003593000035930008030639652382MUNICIPALIDAD DE JUAN B. ALBER00000000021000000000000000000000000000000000000000000000000000000000000000000000000021000000000000000000000000000000000000000000000000000000000000000000000000000000004   000000000000000000000000000000000000000000
10000000006 000100003594000035940008030656291652MUNICIPALIDAD DE MONTEROS     00000000044000000000000000000000000000036363600000000007636400000000000000000000000000000000000000000000000000000000000000000000000000000000000000000000000000000000004   000000000000000000000000000000000000000000
10000000006 000100003595000035950008030656291652MUNICIPALIDAD DE MONTEROS     00000000021000000000000000000000000000000000000000000000000000000000000000000000000021000000000000000000000000000000000000000000000000000000000000000000000000000000004   000000000000000000000000000000000000000000
10000000006 000100003604000036040008030675426798MUNICIPALIDAD DE TAFI DEL VALL00000000044000000000000000000000000000036363600000000007636400000000000000000000000000000000000000000000000000000000000000000000000000000000000000000000000000000000004   000000000000000000000000000000000000000000
10000000006 000100003605000036050008030675426798MUNICIPALIDAD DE TAFI DEL VALL00000000035000000000000000000000000000000000000000000000000000000000000000000000000035000000000000000000000000000000000000000000000000000000000000000000000000000000004   000000000000000000000000000000000000000000
10000000006 000100003606000036060008030675426798MUNICIPALIDAD DE TAFI DEL VALL00000000021000000000000000000000000000000000000000000000000000000000000000000000000021000000000000000000000000000000000000000000000000000000000000000000000000000000004   000000000000000000000000000000000000000000
10000000006 000100003607000036070008030679935697MUNICIPALIDAD DE YERBA BUENA  00000000044000000000000000000000000000036363600000000007636400000000000000000000000000000000000000000000000000000000000000000000000000000000000000000000000000000000004   000000000000000000000000000000000000000000
10000000006 000100003608000036080008030679935697MUNICIPALIDAD DE YERBA BUENA  00000000035000000000000000000000000000000000000000000000000000000000000000000000000035000000000000000000000000000000000000000000000000000000000000000000000000000000004   000000000000000000000000000000000000000000
10000000006 000100003609000036090008030679935697MUNICIPALIDAD DE YERBA BUENA  00000000021000000000000000000000000000000000000000000000000000000000000000000000000021000000000000000000000000000000000000000000000000000000000000000000000000000000004   000000000000000000000000000000000000000000
10000000006 000100003610000036100008030656291652MUNICIPALIDAD DE MONTEROS     00000000035000000000000000000000000000000000000000000000000000000000000000000000000035000000000000000000000000000000000000000000000000000000000000000000000000000000004   000000000000000000000000000000000000000000
10000000006 000100003611000036110008030546670240UNIVERSIDAD NACIONAL DE TUCUMA00000000008000000000000000000000000000000000000000000000000000000000000000000000000008000000000000000000000000000000000000000000000000000000000000000000000000000000004   000000000000000000000000000000000000000000
10000000006 000100003612000036120008030655342946MUNIC. DE SAN MIGUEL DE TUCUMA00000000220000000000000000000000000000181818200000000038181800000000000000000000000000000000000000000000000000000000000000000000000000000000000000000000000000000000004   000000000000000000000000000000000000000000
10000000006 000100003613000036130008030655342946MUNIC. DE SAN MIGUEL DE TUCUMA00000000150000000000000000000000000000000000000000000000000000000000000000000000000150000000000000000000000000000000000000000000000000000000000000000000000000000000004   000000000000000000000000000000000000000000
10000000006 000100003614000036140008030655342946MUNIC. DE SAN MIGUEL DE TUCUMA00000000067000000000000000000000000000000000000000000000000000000000000000000000000067000000000000000000000000000000000000000000000000000000000000000000000000000000004   000000000000000000000000000000000000000000
10000000006 000100003615000036150008030633949227INSTITUTO DE PREVISION Y SEG S00000000033600000000000000000000000000027768600000000005831400000000000000000000000000000000000000000000000000000000000000000000000000000000000000000000000000000000004   000000000000000000000000000000000000000000
10000000006 000100003616000036160008030633949227INSTITUTO DE PREVISION Y SEG S00000000022000000000000000000000000000000000000000000000000000000000000000000000000022000000000000000000000000000000000000000000000000000000000000000000000000000000004   000000000000000000000000000000000000000000
10000000006 000100003617000036170008030633949227INSTITUTO DE PREVISION Y SEG S00000000010000000000000000000000000000000000000000000000000000000000000000000000000010000000000000000000000000000000000000000000000000000000000000000000000000000000004   000000000000000000000000000000000000000000
10000000006 000100003618000036180008030638254286INST.PROV. VIVIENDA Y DES. URB00000000050000000000000000000000000000041322300000000008677700000000000000000000000000000000000000000000000000000000000000000000000000000000000000000000000000000000004   000000000000000000000000000000000000000000
10000000006 000100003619000036190008020144804601JORGE ALEJANDRO HERRERA       00000000003000000000000000000000000000002479300000000000520700000000000000000000000000000000000000000000000000000000000000000000000000000000000000000000000000000000006   000000000000000000000000000000000000000000
10000000006 000100003620000036200008027245842525GRAMAJO DE CARAM SILVINA MARIA00000000002500000000000000000000000000000000000000000000000000000000000000000000000002500000000000000000000000000000000000000000000000000000000000000000000000000000006   000000000000000000000000000000000000000000
10000000006 000100003621000036210008027255715092SZACHNIUK NATALIA             00000000008640000000000000000000000000000000000000000000000000000000000000000000000008640000000000000000000000000000000000000000000000000000000000000000000000000000006   000000000000000000000000000000000000000000
10000000006 000100003622000036220008027245842525GRAMAJO DE CARAM SILVINA MARIA00000000002000000000000000000000000000000000000000000000000000000000000000000000000002000000000000000000000000000000000000000000000000000000000000000000000000000000006   000000000000000000000000000000000000000000
10000000006 000100003623000036230008020083285355RPM PRODUCCIONES              00000000007000000000000000000000000000005785100000000001214900000000000000000000000000000000000000000000000000000000000000000000000000000000000000000000000000000000006   000000000000000000000000000000000000000000
10000000006 000100003624000036240008020083285355RPM PRODUCCIONES              00000000005500000000000000000000000000004545500000000000954500000000000000000000000000000000000000000000000000000000000000000000000000000000000000000000000000000000006   000000000000000000000000000000000000000000
10000000006 000100003625000036250008020083285355RPM PRODUCCIONES              00000000033323400000000000000000000000027540000000000005783400000000000000000000000000000000000000000000000000000000000000000000000000000000000000000000000000000000006   000000000000000000000000000000000000000000
10000000006 000100003626000036260008020083285355RPM PRODUCCIONES              00000000004000000000000000000000000000003305800000000000694200000000000000000000000000000000000000000000000000000000000000000000000000000000000000000000000000000000006   000000000000000000000000000000000000000000
10000000006 000100003627000036270008027059975280CISTERNA MARIA CRISTINA       00000000035366600000000000000000000000029228600000000006138000000000000000000000000000000000000000000000000000000000000000000000000000000000000000000000000000000000006   000000000000000000000000000000000000000000
10000000006 000100003628000036280008020173730269YOVANOVICH DANIEL ANGEL PEDRO 00000000012000000000000000000000000000000000000000000000000000000000000000000000000012000000000000000000000000000000000000000000000000000000000000000000000000000000006   000000000000000000000000000000000000000000
10000000006 000100003629000036290008030685681737MUNICIPALIDAD DE LULES        00000000030000000000000000000000000000000000000000000000000000000000000000000000000030000000000000000000000000000000000000000000000000000000000000000000000000000000004   000000000000000000000000000000000000000000
10000000006 000100003630000036300008027277998624RINALDI ROSALIN ESTHER        00000000004840000000000000000000000000004000000000000000840000000000000000000000000000000000000000000000000000000000000000000000000000000000000000000000000000000000006   000000000000000000000000000000000000000000
10000000006 000100003631000036310008020124497419CORDOBA CARLOS ALFREDO        00000000004840000000000000000000000000004000000000000000840000000000000000000000000000000000000000000000000000000000000000000000000000000000000000000000000000000000006   000000000000000000000000000000000000000000
10000000006 000100003632000036320008030546670240UNIVERSIDAD NACIONAL DE TUCUMA00000000018150000000000000000000000000015000000000000003150000000000000000000000000000000000000000000000000000000000000000000000000000000000000000000000000000000000004   000000000000000000000000000000000000000000
10000000006 000100003633000036330008020146611584MOLINA JOSE OMAR              00000000005000000000000000000000000000000000000000000000000000000000000000000000000005000000000000000000000000000000000000000000000000000000000000000000000000000000006   000000000000000000000000000000000000000000
10000000006 000100003634000036340008030546670240UNIVERSIDAD NACIONAL DE TUCUMA00000000005000000000000000000000000000000000000000000000000000000000000000000000000005000000000000000000000000000000000000000000000000000000000000000000000000000000004   000000000000000000000000000000000000000000
10000000006 000100003635000036350008027226128013LIZARRAGA CLAUDIA DEL PILAR   00000000008000000000000000000000000000000000000000000000000000000000000000000000000008000000000000000000000000000000000000000000000000000000000000000000000000000000006   000000000000000000000000000000000000000000
10000000006 000100003636000036360008020252554018PEREZ GUSTAVO ARIEL           00000000010000000000000000000000000000000000000000000000000000000000000000000000000010000000000000000000000000000000000000000000000000000000000000000000000000000000006   000000000000000000000000000000000000000000
10000000006 000100003637000036370008020208892097ALVAREZ FERNANDO JOSE         00000000020000000000000000000000000000000000000000000000000000000000000000000000000020000000000000000000000000000000000000000000000000000000000000000000000000000000006   000000000000000000000000000000000000000000"
